{
  "_format": "hh-sol-artifact-1",
  "contractName": "AvalancheAssetLink",
  "sourceName": "contracts/AvalancheAssetLink.sol",
  "abi": [
    {
      "inputs": [
        {
          "internalType": "address",
          "name": "_teleporter",
          "type": "address"
        }
      ],
      "stateMutability": "nonpayable",
      "type": "constructor"
    },
    {
      "anonymous": false,
      "inputs": [
        {
          "indexed": false,
          "internalType": "bytes32",
          "name": "sourceChainID",
          "type": "bytes32"
        },
        {
          "indexed": true,
          "internalType": "address",
          "name": "sender",
          "type": "address"
        },
        {
          "indexed": false,
          "internalType": "bytes",
          "name": "message",
          "type": "bytes"
        }
      ],
      "name": "MessageReceived",
      "type": "event"
    },
    {
      "anonymous": false,
      "inputs": [
        {
          "indexed": false,
          "internalType": "bytes32",
          "name": "destinationChainID",
          "type": "bytes32"
        },
        {
          "indexed": true,
          "internalType": "address",
          "name": "destinationAddress",
          "type": "address"
        },
        {
          "indexed": false,
          "internalType": "bytes",
          "name": "message",
          "type": "bytes"
        }
      ],
      "name": "MessageSent",
      "type": "event"
    },
    {
      "inputs": [],
      "name": "owner",
      "outputs": [
        {
          "internalType": "address",
          "name": "",
          "type": "address"
        }
      ],
      "stateMutability": "view",
      "type": "function"
    },
    {
      "inputs": [
        {
          "internalType": "bytes32",
          "name": "sourceChainID",
          "type": "bytes32"
        },
        {
          "internalType": "address",
          "name": "sender",
          "type": "address"
        },
        {
          "internalType": "bytes",
          "name": "message",
          "type": "bytes"
        }
      ],
      "name": "receiveTeleporterMessage",
      "outputs": [],
      "stateMutability": "nonpayable",
      "type": "function"
    },
    {
      "inputs": [
        {
          "internalType": "bytes32",
          "name": "destinationChainID",
          "type": "bytes32"
        },
        {
          "internalType": "address",
          "name": "destinationAddress",
          "type": "address"
        },
        {
          "internalType": "uint256",
          "name": "gasLimit",
          "type": "uint256"
        },
        {
          "internalType": "bytes",
          "name": "payload",
          "type": "bytes"
        }
      ],
      "name": "sendMessage",
      "outputs": [],
      "stateMutability": "payable",
      "type": "function"
    },
    {
      "inputs": [],
      "name": "teleporter",
      "outputs": [
        {
          "internalType": "address",
          "name": "",
          "type": "address"
        }
      ],
      "stateMutability": "view",
      "type": "function"
    },
    {
      "inputs": [
        {
          "internalType": "address",
          "name": "_newTeleporter",
          "type": "address"
        }
      ],
      "name": "updateTeleporter",
      "outputs": [],
      "stateMutability": "nonpayable",
      "type": "function"
    }
  ],
  "bytecode": "0x60806040523480156200001157600080fd5b506040516200112438038062001124833981810160405281019062000037919062000149565b600073ffffffffffffffffffffffffffffffffffffffff168173ffffffffffffffffffffffffffffffffffffffff161415620000aa576040517f08c379a0000000000000000000000000000000000000000000000000000000008152600401620000a1906200019c565b60405180910390fd5b806000806101000a81548173ffffffffffffffffffffffffffffffffffffffff021916908373ffffffffffffffffffffffffffffffffffffffff16021790555033600160006101000a81548173ffffffffffffffffffffffffffffffffffffffff021916908373ffffffffffffffffffffffffffffffffffffffff160217905550506200026c565b600081519050620001438162000252565b92915050565b6000602082840312156200015c57600080fd5b60006200016c8482850162000132565b91505092915050565b600062000184602183620001be565b9150620001918262000203565b604082019050919050565b60006020820190508181036000830152620001b78162000175565b9050919050565b600082825260208201905092915050565b6000620001dc82620001e3565b9050919050565b600073ffffffffffffffffffffffffffffffffffffffff82169050919050565b7f54656c65706f7274657220616464726573732063616e6e6f74206265207a657260008201527f6f00000000000000000000000000000000000000000000000000000000000000602082015250565b6200025d81620001cf565b81146200026957600080fd5b50565b610ea8806200027c6000396000f3fe60806040526004361061004a5760003560e01c806329f964711461004f5780638da5cb5b1461006b578063b3ff9f4914610096578063c868efaa146100c1578063fbf7bb96146100ea575b600080fd5b610069600480360381019061006491906107c4565b610113565b005b34801561007757600080fd5b5061008061038d565b60405161008d9190610ac7565b60405180910390f35b3480156100a257600080fd5b506100ab6103b3565b6040516100b89190610ac7565b60405180910390f35b3480156100cd57600080fd5b506100e860048036038101906100e39190610758565b6103d7565b005b3480156100f657600080fd5b50610111600480360381019061010c9190610706565b6104bd565b005b600160009054906101000a900473ffffffffffffffffffffffffffffffffffffffff1673ffffffffffffffffffffffffffffffffffffffff163373ffffffffffffffffffffffffffffffffffffffff16146101a3576040517f08c379a000000000000000000000000000000000000000000000000000000000815260040161019a90610b84565b60405180910390fd5b60006040518060400160405280600073ffffffffffffffffffffffffffffffffffffffff16815260200134815250905060006040518060c001604052808781526020018673ffffffffffffffffffffffffffffffffffffffff168152602001838152602001858152602001600067ffffffffffffffff81111561024f577f4e487b7100000000000000000000000000000000000000000000000000000000600052604160045260246000fd5b60405190808252806020026020018201604052801561027d5781602001602082028036833780820191505090505b50815260200184815250905060008054906101000a900473ffffffffffffffffffffffffffffffffffffffff1673ffffffffffffffffffffffffffffffffffffffff166362448850826040518263ffffffff1660e01b81526004016102e29190610ba4565b602060405180830381600087803b1580156102fc57600080fd5b505af1158015610310573d6000803e3d6000fd5b505050506040513d601f19601f82011682018060405250810190610334919061072f565b508473ffffffffffffffffffffffffffffffffffffffff167f995eed0432f54d505e3a2502347f149f9c0a7f6c5390059640e095bcec6f33c1878560405161037d929190610b14565b60405180910390a2505050505050565b600160009054906101000a900473ffffffffffffffffffffffffffffffffffffffff1681565b60008054906101000a900473ffffffffffffffffffffffffffffffffffffffff1681565b60008054906101000a900473ffffffffffffffffffffffffffffffffffffffff1673ffffffffffffffffffffffffffffffffffffffff163373ffffffffffffffffffffffffffffffffffffffff1614610465576040517f08c379a000000000000000000000000000000000000000000000000000000000815260040161045c90610b44565b60405180910390fd5b8273ffffffffffffffffffffffffffffffffffffffff167f61ff615413581b9b24dabebe6013dd2195ab10e3285692574fb0790ca4c05b568584846040516104af93929190610ae2565b60405180910390a250505050565b600160009054906101000a900473ffffffffffffffffffffffffffffffffffffffff1673ffffffffffffffffffffffffffffffffffffffff163373ffffffffffffffffffffffffffffffffffffffff161461054d576040517f08c379a000000000000000000000000000000000000000000000000000000000815260040161054490610b84565b60405180910390fd5b600073ffffffffffffffffffffffffffffffffffffffff168173ffffffffffffffffffffffffffffffffffffffff1614156105bd576040517f08c379a00000000000000000000000000000000000000000000000000000000081526004016105b490610b64565b60405180910390fd5b806000806101000a81548173ffffffffffffffffffffffffffffffffffffffff021916908373ffffffffffffffffffffffffffffffffffffffff16021790555050565b600061061361060e84610beb565b610bc6565b90508281526020810184848401111561062b57600080fd5b610636848285610cd9565b509392505050565b60008135905061064d81610e2d565b92915050565b60008135905061066281610e44565b92915050565b60008151905061067781610e44565b92915050565b60008083601f84011261068f57600080fd5b8235905067ffffffffffffffff8111156106a857600080fd5b6020830191508360018202830111156106c057600080fd5b9250929050565b600082601f8301126106d857600080fd5b81356106e8848260208601610600565b91505092915050565b60008135905061070081610e5b565b92915050565b60006020828403121561071857600080fd5b60006107268482850161063e565b91505092915050565b60006020828403121561074157600080fd5b600061074f84828501610668565b91505092915050565b6000806000806060858703121561076e57600080fd5b600061077c87828801610653565b945050602061078d8782880161063e565b935050604085013567ffffffffffffffff8111156107aa57600080fd5b6107b68782880161067d565b925092505092959194509250565b600080600080608085870312156107da57600080fd5b60006107e887828801610653565b94505060206107f98782880161063e565b935050604061080a878288016106f1565b925050606085013567ffffffffffffffff81111561082757600080fd5b610833878288016106c7565b91505092959194509250565b600061084b8383610857565b60208301905092915050565b61086081610c93565b82525050565b61086f81610c93565b82525050565b600061088082610c2c565b61088a8185610c4f565b935061089583610c1c565b8060005b838110156108c65781516108ad888261083f565b97506108b883610c42565b925050600181019050610899565b5085935050505092915050565b6108dc81610ca5565b82525050565b6108eb81610ca5565b82525050565b60006108fd8385610c71565b935061090a838584610cd9565b61091383610d7b565b840190509392505050565b600061092982610c37565b6109338185610c60565b9350610943818560208601610ce8565b61094c81610d7b565b840191505092915050565b600061096282610c37565b61096c8185610c71565b935061097c818560208601610ce8565b61098581610d7b565b840191505092915050565b600061099d601383610c82565b91506109a882610d8c565b602082019050919050565b60006109c0602583610c82565b91506109cb82610db5565b604082019050919050565b60006109e3600e83610c82565b91506109ee82610e04565b602082019050919050565b604082016000820151610a0f6000850182610857565b506020820151610a226020850182610ab8565b50505050565b600060e083016000830151610a4060008601826108d3565b506020830151610a536020860182610857565b506040830151610a6660408601826109f9565b506060830151610a796080860182610ab8565b50608083015184820360a0860152610a918282610875565b91505060a083015184820360c0860152610aab828261091e565b9150508091505092915050565b610ac181610ccf565b82525050565b6000602082019050610adc6000830184610866565b92915050565b6000604082019050610af760008301866108e2565b8181036020830152610b0a8184866108f1565b9050949350505050565b6000604082019050610b2960008301856108e2565b8181036020830152610b3b8184610957565b90509392505050565b60006020820190508181036000830152610b5d81610990565b9050919050565b60006020820190508181036000830152610b7d816109b3565b9050919050565b60006020820190508181036000830152610b9d816109d6565b9050919050565b60006020820190508181036000830152610bbe8184610a28565b905092915050565b6000610bd0610be1565b9050610bdc8282610d1b565b919050565b6000604051905090565b600067ffffffffffffffff821115610c0657610c05610d4c565b5b610c0f82610d7b565b9050602081019050919050565b6000819050602082019050919050565b600081519050919050565b600081519050919050565b6000602082019050919050565b600082825260208201905092915050565b600082825260208201905092915050565b600082825260208201905092915050565b600082825260208201905092915050565b6000610c9e82610caf565b9050919050565b6000819050919050565b600073ffffffffffffffffffffffffffffffffffffffff82169050919050565b6000819050919050565b82818337600083830152505050565b60005b83811015610d06578082015181840152602081019050610ceb565b83811115610d15576000848401525b50505050565b610d2482610d7b565b810181811067ffffffffffffffff82111715610d4357610d42610d4c565b5b80604052505050565b7f4e487b7100000000000000000000000000000000000000000000000000000000600052604160045260246000fd5b6000601f19601f8301169050919050565b7f556e617574686f72697a65642073656e64657200000000000000000000000000600082015250565b7f4e65772074656c65706f7274657220616464726573732063616e6e6f7420626560008201527f207a65726f000000000000000000000000000000000000000000000000000000602082015250565b7f4e6f7420617574686f72697a6564000000000000000000000000000000000000600082015250565b610e3681610c93565b8114610e4157600080fd5b50565b610e4d81610ca5565b8114610e5857600080fd5b50565b610e6481610ccf565b8114610e6f57600080fd5b5056fea2646970667358221220608ef21da3832ba20a7b477213f5df0d5a0df941de79b778c41d07b764367a7f64736f6c63430008010033",
  "linkReferences": {},
  "deployedLinkReferences": {}
}