{"contracts/SecurityLayer.sol":{"SecurityLayer":{"abi":[{"inputs":[{"internalType":"bytes","name":"data","type":"bytes"}],"name":"validateData","outputs":[{"internalType":"bool","name":"","type":"bool"}],"stateMutability":"pure","type":"function"},{"inputs":[{"internalType":"bytes32","name":"hash","type":"bytes32"},{"internalType":"bytes","name":"signature","type":"bytes"},{"internalType":"address","name":"user","type":"address"}],"name":"validateSignature","outputs":[{"internalType":"bool","name":"","type":"bool"}],"stateMutability":"pure","type":"function"}],"evm":{"bytecode":{"linkReferences":{},"object":"608060405234801561001057600080fd5b506109fd806100206000396000f3fe608060405234801561001057600080fd5b50600436106100365760003560e01c80637810e19f1461003b578063a6ffa36c1461006b575b600080fd5b610055600480360381019061005091906105be565b61009b565b60405161006291906106fc565b60405180910390f35b61008560048036038101906100809190610625565b6100ef565b60405161009291906106fc565b60405180910390f35b60008173ffffffffffffffffffffffffffffffffffffffff166100cf846100c1876100fc565b61013290919063ffffffff16565b73ffffffffffffffffffffffffffffffffffffffff161490509392505050565b6000808251119050919050565b60007f19457468657265756d205369676e6564204d6573736167653a0a33320000000060005281601c52603c6000209050919050565b60008060006101418585610159565b9150915061014e816101ab565b819250505092915050565b60008060418351141561019b5760008060006020860151925060408601519150606086015160001a905061018f87828585610449565b945094505050506101a4565b60006002915091505b9250929050565b600060048111156101e5577f4e487b7100000000000000000000000000000000000000000000000000000000600052602160045260246000fd5b81600481111561021e577f4e487b7100000000000000000000000000000000000000000000000000000000600052602160045260246000fd5b141561022957610446565b60016004811115610263577f4e487b7100000000000000000000000000000000000000000000000000000000600052602160045260246000fd5b81600481111561029c577f4e487b7100000000000000000000000000000000000000000000000000000000600052602160045260246000fd5b14156102dd576040517f08c379a00000000000000000000000000000000000000000000000000000000081526004016102d49061075c565b60405180910390fd5b60026004811115610317577f4e487b7100000000000000000000000000000000000000000000000000000000600052602160045260246000fd5b816004811115610350577f4e487b7100000000000000000000000000000000000000000000000000000000600052602160045260246000fd5b1415610391576040517f08c379a00000000000000000000000000000000000000000000000000000000081526004016103889061077c565b60405180910390fd5b600360048111156103cb577f4e487b7100000000000000000000000000000000000000000000000000000000600052602160045260246000fd5b816004811115610404577f4e487b7100000000000000000000000000000000000000000000000000000000600052602160045260246000fd5b1415610445576040517f08c379a000000000000000000000000000000000000000000000000000000000815260040161043c9061079c565b60405180910390fd5b5b50565b6000807f7fffffffffffffffffffffffffffffff5d576e7357a4501ddfe92f46681b20a08360001c1115610484576000600391509150610523565b6000600187878787604051600081526020016040526040516104a99493929190610717565b6020604051602081039080840390855afa1580156104cb573d6000803e3d6000fd5b505050602060405103519050600073ffffffffffffffffffffffffffffffffffffffff168173ffffffffffffffffffffffffffffffffffffffff16141561051a57600060019250925050610523565b80600092509250505b94509492505050565b600061053f61053a846107e1565b6107bc565b90508281526020810184848401111561055757600080fd5b610562848285610878565b509392505050565b60008135905061057981610999565b92915050565b60008135905061058e816109b0565b92915050565b600082601f8301126105a557600080fd5b81356105b584826020860161052c565b91505092915050565b6000806000606084860312156105d357600080fd5b60006105e18682870161057f565b935050602084013567ffffffffffffffff8111156105fe57600080fd5b61060a86828701610594565b925050604061061b8682870161056a565b9150509250925092565b60006020828403121561063757600080fd5b600082013567ffffffffffffffff81111561065157600080fd5b61065d84828501610594565b91505092915050565b61066f81610835565b82525050565b61067e81610841565b82525050565b6000610691601883610812565b915061069c826108f8565b602082019050919050565b60006106b4601f83610812565b91506106bf82610921565b602082019050919050565b60006106d7602283610812565b91506106e28261094a565b604082019050919050565b6106f68161086b565b82525050565b60006020820190506107116000830184610666565b92915050565b600060808201905061072c6000830187610675565b61073960208301866106ed565b6107466040830185610675565b6107536060830184610675565b95945050505050565b6000602082019050818103600083015261077581610684565b9050919050565b60006020820190508181036000830152610795816106a7565b9050919050565b600060208201905081810360008301526107b5816106ca565b9050919050565b60006107c66107d7565b90506107d28282610887565b919050565b6000604051905090565b600067ffffffffffffffff8211156107fc576107fb6108b8565b5b610805826108e7565b9050602081019050919050565b600082825260208201905092915050565b600061082e8261084b565b9050919050565b60008115159050919050565b6000819050919050565b600073ffffffffffffffffffffffffffffffffffffffff82169050919050565b600060ff82169050919050565b82818337600083830152505050565b610890826108e7565b810181811067ffffffffffffffff821117156108af576108ae6108b8565b5b80604052505050565b7f4e487b7100000000000000000000000000000000000000000000000000000000600052604160045260246000fd5b6000601f19601f8301169050919050565b7f45434453413a20696e76616c6964207369676e61747572650000000000000000600082015250565b7f45434453413a20696e76616c6964207369676e6174757265206c656e67746800600082015250565b7f45434453413a20696e76616c6964207369676e6174757265202773272076616c60008201527f7565000000000000000000000000000000000000000000000000000000000000602082015250565b6109a281610823565b81146109ad57600080fd5b50565b6109b981610841565b81146109c457600080fd5b5056fea26469706673582212204883aa776b1088e4519e05453227c8d4f0bbc593150ad11d9b5b48756ec8f34064736f6c63430008010033","opcodes":"PUSH1 0x80 PUSH1 0x40 MSTORE CALLVALUE DUP1 ISZERO PUSH2 0x10 JUMPI PUSH1 0x0 DUP1 REVERT JUMPDEST POP PUSH2 0x9FD DUP1 PUSH2 0x20 PUSH1 0x0 CODECOPY PUSH1 0x0 RETURN INVALID PUSH1 0x80 PUSH1 0x40 MSTORE CALLVALUE DUP1 ISZERO PUSH2 0x10 JUMPI PUSH1 0x0 DUP1 REVERT JUMPDEST POP PUSH1 0x4 CALLDATASIZE LT PUSH2 0x36 JUMPI PUSH1 0x0 CALLDATALOAD PUSH1 0xE0 SHR DUP1 PUSH4 0x7810E19F EQ PUSH2 0x3B JUMPI DUP1 PUSH4 0xA6FFA36C EQ PUSH2 0x6B JUMPI JUMPDEST PUSH1 0x0 DUP1 REVERT JUMPDEST PUSH2 0x55 PUSH1 0x4 DUP1 CALLDATASIZE SUB DUP2 ADD SWAP1 PUSH2 0x50 SWAP2 SWAP1 PUSH2 0x5BE JUMP JUMPDEST PUSH2 0x9B JUMP JUMPDEST PUSH1 0x40 MLOAD PUSH2 0x62 SWAP2 SWAP1 PUSH2 0x6FC JUMP JUMPDEST PUSH1 0x40 MLOAD DUP1 SWAP2 SUB SWAP1 RETURN JUMPDEST PUSH2 0x85 PUSH1 0x4 DUP1 CALLDATASIZE SUB DUP2 ADD SWAP1 PUSH2 0x80 SWAP2 SWAP1 PUSH2 0x625 JUMP JUMPDEST PUSH2 0xEF JUMP JUMPDEST PUSH1 0x40 MLOAD PUSH2 0x92 SWAP2 SWAP1 PUSH2 0x6FC JUMP JUMPDEST PUSH1 0x40 MLOAD DUP1 SWAP2 SUB SWAP1 RETURN JUMPDEST PUSH1 0x0 DUP2 PUSH20 0xFFFFFFFFFFFFFFFFFFFFFFFFFFFFFFFFFFFFFFFF AND PUSH2 0xCF DUP5 PUSH2 0xC1 DUP8 PUSH2 0xFC JUMP JUMPDEST PUSH2 0x132 SWAP1 SWAP2 SWAP1 PUSH4 0xFFFFFFFF AND JUMP JUMPDEST PUSH20 0xFFFFFFFFFFFFFFFFFFFFFFFFFFFFFFFFFFFFFFFF AND EQ SWAP1 POP SWAP4 SWAP3 POP POP POP JUMP JUMPDEST PUSH1 0x0 DUP1 DUP3 MLOAD GT SWAP1 POP SWAP2 SWAP1 POP JUMP JUMPDEST PUSH1 0x0 PUSH32 0x19457468657265756D205369676E6564204D6573736167653A0A333200000000 PUSH1 0x0 MSTORE DUP2 PUSH1 0x1C MSTORE PUSH1 0x3C PUSH1 0x0 KECCAK256 SWAP1 POP SWAP2 SWAP1 POP JUMP JUMPDEST PUSH1 0x0 DUP1 PUSH1 0x0 PUSH2 0x141 DUP6 DUP6 PUSH2 0x159 JUMP JUMPDEST SWAP2 POP SWAP2 POP PUSH2 0x14E DUP2 PUSH2 0x1AB JUMP JUMPDEST DUP2 SWAP3 POP POP POP SWAP3 SWAP2 POP POP JUMP JUMPDEST PUSH1 0x0 DUP1 PUSH1 0x41 DUP4 MLOAD EQ ISZERO PUSH2 0x19B JUMPI PUSH1 0x0 DUP1 PUSH1 0x0 PUSH1 0x20 DUP7 ADD MLOAD SWAP3 POP PUSH1 0x40 DUP7 ADD MLOAD SWAP2 POP PUSH1 0x60 DUP7 ADD MLOAD PUSH1 0x0 BYTE SWAP1 POP PUSH2 0x18F DUP8 DUP3 DUP6 DUP6 PUSH2 0x449 JUMP JUMPDEST SWAP5 POP SWAP5 POP POP POP POP PUSH2 0x1A4 JUMP JUMPDEST PUSH1 0x0 PUSH1 0x2 SWAP2 POP SWAP2 POP JUMPDEST SWAP3 POP SWAP3 SWAP1 POP JUMP JUMPDEST PUSH1 0x0 PUSH1 0x4 DUP2 GT ISZERO PUSH2 0x1E5 JUMPI PUSH32 0x4E487B7100000000000000000000000000000000000000000000000000000000 PUSH1 0x0 MSTORE PUSH1 0x21 PUSH1 0x4 MSTORE PUSH1 0x24 PUSH1 0x0 REVERT JUMPDEST DUP2 PUSH1 0x4 DUP2 GT ISZERO PUSH2 0x21E JUMPI PUSH32 0x4E487B7100000000000000000000000000000000000000000000000000000000 PUSH1 0x0 MSTORE PUSH1 0x21 PUSH1 0x4 MSTORE PUSH1 0x24 PUSH1 0x0 REVERT JUMPDEST EQ ISZERO PUSH2 0x229 JUMPI PUSH2 0x446 JUMP JUMPDEST PUSH1 0x1 PUSH1 0x4 DUP2 GT ISZERO PUSH2 0x263 JUMPI PUSH32 0x4E487B7100000000000000000000000000000000000000000000000000000000 PUSH1 0x0 MSTORE PUSH1 0x21 PUSH1 0x4 MSTORE PUSH1 0x24 PUSH1 0x0 REVERT JUMPDEST DUP2 PUSH1 0x4 DUP2 GT ISZERO PUSH2 0x29C JUMPI PUSH32 0x4E487B7100000000000000000000000000000000000000000000000000000000 PUSH1 0x0 MSTORE PUSH1 0x21 PUSH1 0x4 MSTORE PUSH1 0x24 PUSH1 0x0 REVERT JUMPDEST EQ ISZERO PUSH2 0x2DD JUMPI PUSH1 0x40 MLOAD PUSH32 0x8C379A000000000000000000000000000000000000000000000000000000000 DUP2 MSTORE PUSH1 0x4 ADD PUSH2 0x2D4 SWAP1 PUSH2 0x75C JUMP JUMPDEST PUSH1 0x40 MLOAD DUP1 SWAP2 SUB SWAP1 REVERT JUMPDEST PUSH1 0x2 PUSH1 0x4 DUP2 GT ISZERO PUSH2 0x317 JUMPI PUSH32 0x4E487B7100000000000000000000000000000000000000000000000000000000 PUSH1 0x0 MSTORE PUSH1 0x21 PUSH1 0x4 MSTORE PUSH1 0x24 PUSH1 0x0 REVERT JUMPDEST DUP2 PUSH1 0x4 DUP2 GT ISZERO PUSH2 0x350 JUMPI PUSH32 0x4E487B7100000000000000000000000000000000000000000000000000000000 PUSH1 0x0 MSTORE PUSH1 0x21 PUSH1 0x4 MSTORE PUSH1 0x24 PUSH1 0x0 REVERT JUMPDEST EQ ISZERO PUSH2 0x391 JUMPI PUSH1 0x40 MLOAD PUSH32 0x8C379A000000000000000000000000000000000000000000000000000000000 DUP2 MSTORE PUSH1 0x4 ADD PUSH2 0x388 SWAP1 PUSH2 0x77C JUMP JUMPDEST PUSH1 0x40 MLOAD DUP1 SWAP2 SUB SWAP1 REVERT JUMPDEST PUSH1 0x3 PUSH1 0x4 DUP2 GT ISZERO PUSH2 0x3CB JUMPI PUSH32 0x4E487B7100000000000000000000000000000000000000000000000000000000 PUSH1 0x0 MSTORE PUSH1 0x21 PUSH1 0x4 MSTORE PUSH1 0x24 PUSH1 0x0 REVERT JUMPDEST DUP2 PUSH1 0x4 DUP2 GT ISZERO PUSH2 0x404 JUMPI PUSH32 0x4E487B7100000000000000000000000000000000000000000000000000000000 PUSH1 0x0 MSTORE PUSH1 0x21 PUSH1 0x4 MSTORE PUSH1 0x24 PUSH1 0x0 REVERT JUMPDEST EQ ISZERO PUSH2 0x445 JUMPI PUSH1 0x40 MLOAD PUSH32 0x8C379A000000000000000000000000000000000000000000000000000000000 DUP2 MSTORE PUSH1 0x4 ADD PUSH2 0x43C SWAP1 PUSH2 0x79C JUMP JUMPDEST PUSH1 0x40 MLOAD DUP1 SWAP2 SUB SWAP1 REVERT JUMPDEST JUMPDEST POP JUMP JUMPDEST PUSH1 0x0 DUP1 PUSH32 0x7FFFFFFFFFFFFFFFFFFFFFFFFFFFFFFF5D576E7357A4501DDFE92F46681B20A0 DUP4 PUSH1 0x0 SHR GT ISZERO PUSH2 0x484 JUMPI PUSH1 0x0 PUSH1 0x3 SWAP2 POP SWAP2 POP PUSH2 0x523 JUMP JUMPDEST PUSH1 0x0 PUSH1 0x1 DUP8 DUP8 DUP8 DUP8 PUSH1 0x40 MLOAD PUSH1 0x0 DUP2 MSTORE PUSH1 0x20 ADD PUSH1 0x40 MSTORE PUSH1 0x40 MLOAD PUSH2 0x4A9 SWAP5 SWAP4 SWAP3 SWAP2 SWAP1 PUSH2 0x717 JUMP JUMPDEST PUSH1 0x20 PUSH1 0x40 MLOAD PUSH1 0x20 DUP2 SUB SWAP1 DUP1 DUP5 SUB SWAP1 DUP6 GAS STATICCALL ISZERO DUP1 ISZERO PUSH2 0x4CB JUMPI RETURNDATASIZE PUSH1 0x0 DUP1 RETURNDATACOPY RETURNDATASIZE PUSH1 0x0 REVERT JUMPDEST POP POP POP PUSH1 0x20 PUSH1 0x40 MLOAD SUB MLOAD SWAP1 POP PUSH1 0x0 PUSH20 0xFFFFFFFFFFFFFFFFFFFFFFFFFFFFFFFFFFFFFFFF AND DUP2 PUSH20 0xFFFFFFFFFFFFFFFFFFFFFFFFFFFFFFFFFFFFFFFF AND EQ ISZERO PUSH2 0x51A JUMPI PUSH1 0x0 PUSH1 0x1 SWAP3 POP SWAP3 POP POP PUSH2 0x523 JUMP JUMPDEST DUP1 PUSH1 0x0 SWAP3 POP SWAP3 POP POP JUMPDEST SWAP5 POP SWAP5 SWAP3 POP POP POP JUMP JUMPDEST PUSH1 0x0 PUSH2 0x53F PUSH2 0x53A DUP5 PUSH2 0x7E1 JUMP JUMPDEST PUSH2 0x7BC JUMP JUMPDEST SWAP1 POP DUP3 DUP2 MSTORE PUSH1 0x20 DUP2 ADD DUP5 DUP5 DUP5 ADD GT ISZERO PUSH2 0x557 JUMPI PUSH1 0x0 DUP1 REVERT JUMPDEST PUSH2 0x562 DUP5 DUP3 DUP6 PUSH2 0x878 JUMP JUMPDEST POP SWAP4 SWAP3 POP POP POP JUMP JUMPDEST PUSH1 0x0 DUP2 CALLDATALOAD SWAP1 POP PUSH2 0x579 DUP2 PUSH2 0x999 JUMP JUMPDEST SWAP3 SWAP2 POP POP JUMP JUMPDEST PUSH1 0x0 DUP2 CALLDATALOAD SWAP1 POP PUSH2 0x58E DUP2 PUSH2 0x9B0 JUMP JUMPDEST SWAP3 SWAP2 POP POP JUMP JUMPDEST PUSH1 0x0 DUP3 PUSH1 0x1F DUP4 ADD SLT PUSH2 0x5A5 JUMPI PUSH1 0x0 DUP1 REVERT JUMPDEST DUP2 CALLDATALOAD PUSH2 0x5B5 DUP5 DUP3 PUSH1 0x20 DUP7 ADD PUSH2 0x52C JUMP JUMPDEST SWAP2 POP POP SWAP3 SWAP2 POP POP JUMP JUMPDEST PUSH1 0x0 DUP1 PUSH1 0x0 PUSH1 0x60 DUP5 DUP7 SUB SLT ISZERO PUSH2 0x5D3 JUMPI PUSH1 0x0 DUP1 REVERT JUMPDEST PUSH1 0x0 PUSH2 0x5E1 DUP7 DUP3 DUP8 ADD PUSH2 0x57F JUMP JUMPDEST SWAP4 POP POP PUSH1 0x20 DUP5 ADD CALLDATALOAD PUSH8 0xFFFFFFFFFFFFFFFF DUP2 GT ISZERO PUSH2 0x5FE JUMPI PUSH1 0x0 DUP1 REVERT JUMPDEST PUSH2 0x60A DUP7 DUP3 DUP8 ADD PUSH2 0x594 JUMP JUMPDEST SWAP3 POP POP PUSH1 0x40 PUSH2 0x61B DUP7 DUP3 DUP8 ADD PUSH2 0x56A JUMP JUMPDEST SWAP2 POP POP SWAP3 POP SWAP3 POP SWAP3 JUMP JUMPDEST PUSH1 0x0 PUSH1 0x20 DUP3 DUP5 SUB SLT ISZERO PUSH2 0x637 JUMPI PUSH1 0x0 DUP1 REVERT JUMPDEST PUSH1 0x0 DUP3 ADD CALLDATALOAD PUSH8 0xFFFFFFFFFFFFFFFF DUP2 GT ISZERO PUSH2 0x651 JUMPI PUSH1 0x0 DUP1 REVERT JUMPDEST PUSH2 0x65D DUP5 DUP3 DUP6 ADD PUSH2 0x594 JUMP JUMPDEST SWAP2 POP POP SWAP3 SWAP2 POP POP JUMP JUMPDEST PUSH2 0x66F DUP2 PUSH2 0x835 JUMP JUMPDEST DUP3 MSTORE POP POP JUMP JUMPDEST PUSH2 0x67E DUP2 PUSH2 0x841 JUMP JUMPDEST DUP3 MSTORE POP POP JUMP JUMPDEST PUSH1 0x0 PUSH2 0x691 PUSH1 0x18 DUP4 PUSH2 0x812 JUMP JUMPDEST SWAP2 POP PUSH2 0x69C DUP3 PUSH2 0x8F8 JUMP JUMPDEST PUSH1 0x20 DUP3 ADD SWAP1 POP SWAP2 SWAP1 POP JUMP JUMPDEST PUSH1 0x0 PUSH2 0x6B4 PUSH1 0x1F DUP4 PUSH2 0x812 JUMP JUMPDEST SWAP2 POP PUSH2 0x6BF DUP3 PUSH2 0x921 JUMP JUMPDEST PUSH1 0x20 DUP3 ADD SWAP1 POP SWAP2 SWAP1 POP JUMP JUMPDEST PUSH1 0x0 PUSH2 0x6D7 PUSH1 0x22 DUP4 PUSH2 0x812 JUMP JUMPDEST SWAP2 POP PUSH2 0x6E2 DUP3 PUSH2 0x94A JUMP JUMPDEST PUSH1 0x40 DUP3 ADD SWAP1 POP SWAP2 SWAP1 POP JUMP JUMPDEST PUSH2 0x6F6 DUP2 PUSH2 0x86B JUMP JUMPDEST DUP3 MSTORE POP POP JUMP JUMPDEST PUSH1 0x0 PUSH1 0x20 DUP3 ADD SWAP1 POP PUSH2 0x711 PUSH1 0x0 DUP4 ADD DUP5 PUSH2 0x666 JUMP JUMPDEST SWAP3 SWAP2 POP POP JUMP JUMPDEST PUSH1 0x0 PUSH1 0x80 DUP3 ADD SWAP1 POP PUSH2 0x72C PUSH1 0x0 DUP4 ADD DUP8 PUSH2 0x675 JUMP JUMPDEST PUSH2 0x739 PUSH1 0x20 DUP4 ADD DUP7 PUSH2 0x6ED JUMP JUMPDEST PUSH2 0x746 PUSH1 0x40 DUP4 ADD DUP6 PUSH2 0x675 JUMP JUMPDEST PUSH2 0x753 PUSH1 0x60 DUP4 ADD DUP5 PUSH2 0x675 JUMP JUMPDEST SWAP6 SWAP5 POP POP POP POP POP JUMP JUMPDEST PUSH1 0x0 PUSH1 0x20 DUP3 ADD SWAP1 POP DUP2 DUP2 SUB PUSH1 0x0 DUP4 ADD MSTORE PUSH2 0x775 DUP2 PUSH2 0x684 JUMP JUMPDEST SWAP1 POP SWAP2 SWAP1 POP JUMP JUMPDEST PUSH1 0x0 PUSH1 0x20 DUP3 ADD SWAP1 POP DUP2 DUP2 SUB PUSH1 0x0 DUP4 ADD MSTORE PUSH2 0x795 DUP2 PUSH2 0x6A7 JUMP JUMPDEST SWAP1 POP SWAP2 SWAP1 POP JUMP JUMPDEST PUSH1 0x0 PUSH1 0x20 DUP3 ADD SWAP1 POP DUP2 DUP2 SUB PUSH1 0x0 DUP4 ADD MSTORE PUSH2 0x7B5 DUP2 PUSH2 0x6CA JUMP JUMPDEST SWAP1 POP SWAP2 SWAP1 POP JUMP JUMPDEST PUSH1 0x0 PUSH2 0x7C6 PUSH2 0x7D7 JUMP JUMPDEST SWAP1 POP PUSH2 0x7D2 DUP3 DUP3 PUSH2 0x887 JUMP JUMPDEST SWAP2 SWAP1 POP JUMP JUMPDEST PUSH1 0x0 PUSH1 0x40 MLOAD SWAP1 POP SWAP1 JUMP JUMPDEST PUSH1 0x0 PUSH8 0xFFFFFFFFFFFFFFFF DUP3 GT ISZERO PUSH2 0x7FC JUMPI PUSH2 0x7FB PUSH2 0x8B8 JUMP JUMPDEST JUMPDEST PUSH2 0x805 DUP3 PUSH2 0x8E7 JUMP JUMPDEST SWAP1 POP PUSH1 0x20 DUP2 ADD SWAP1 POP SWAP2 SWAP1 POP JUMP JUMPDEST PUSH1 0x0 DUP3 DUP3 MSTORE PUSH1 0x20 DUP3 ADD SWAP1 POP SWAP3 SWAP2 POP POP JUMP JUMPDEST PUSH1 0x0 PUSH2 0x82E DUP3 PUSH2 0x84B JUMP JUMPDEST SWAP1 POP SWAP2 SWAP1 POP JUMP JUMPDEST PUSH1 0x0 DUP2 ISZERO ISZERO SWAP1 POP SWAP2 SWAP1 POP JUMP JUMPDEST PUSH1 0x0 DUP2 SWAP1 POP SWAP2 SWAP1 POP JUMP JUMPDEST PUSH1 0x0 PUSH20 0xFFFFFFFFFFFFFFFFFFFFFFFFFFFFFFFFFFFFFFFF DUP3 AND SWAP1 POP SWAP2 SWAP1 POP JUMP JUMPDEST PUSH1 0x0 PUSH1 0xFF DUP3 AND SWAP1 POP SWAP2 SWAP1 POP JUMP JUMPDEST DUP3 DUP2 DUP4 CALLDATACOPY PUSH1 0x0 DUP4 DUP4 ADD MSTORE POP POP POP JUMP JUMPDEST PUSH2 0x890 DUP3 PUSH2 0x8E7 JUMP JUMPDEST DUP2 ADD DUP2 DUP2 LT PUSH8 0xFFFFFFFFFFFFFFFF DUP3 GT OR ISZERO PUSH2 0x8AF JUMPI PUSH2 0x8AE PUSH2 0x8B8 JUMP JUMPDEST JUMPDEST DUP1 PUSH1 0x40 MSTORE POP POP POP JUMP JUMPDEST PUSH32 0x4E487B7100000000000000000000000000000000000000000000000000000000 PUSH1 0x0 MSTORE PUSH1 0x41 PUSH1 0x4 MSTORE PUSH1 0x24 PUSH1 0x0 REVERT JUMPDEST PUSH1 0x0 PUSH1 0x1F NOT PUSH1 0x1F DUP4 ADD AND SWAP1 POP SWAP2 SWAP1 POP JUMP JUMPDEST PUSH32 0x45434453413A20696E76616C6964207369676E61747572650000000000000000 PUSH1 0x0 DUP3 ADD MSTORE POP JUMP JUMPDEST PUSH32 0x45434453413A20696E76616C6964207369676E6174757265206C656E67746800 PUSH1 0x0 DUP3 ADD MSTORE POP JUMP JUMPDEST PUSH32 0x45434453413A20696E76616C6964207369676E6174757265202773272076616C PUSH1 0x0 DUP3 ADD MSTORE PUSH32 0x7565000000000000000000000000000000000000000000000000000000000000 PUSH1 0x20 DUP3 ADD MSTORE POP JUMP JUMPDEST PUSH2 0x9A2 DUP2 PUSH2 0x823 JUMP JUMPDEST DUP2 EQ PUSH2 0x9AD JUMPI PUSH1 0x0 DUP1 REVERT JUMPDEST POP JUMP JUMPDEST PUSH2 0x9B9 DUP2 PUSH2 0x841 JUMP JUMPDEST DUP2 EQ PUSH2 0x9C4 JUMPI PUSH1 0x0 DUP1 REVERT JUMPDEST POP JUMP INVALID LOG2 PUSH5 0x6970667358 0x22 SLT KECCAK256 0x48 DUP4 0xAA PUSH24 0x6B1088E4519E05453227C8D4F0BBC593150AD11D9B5B4875 PUSH15 0xC8F34064736F6C6343000801003300 "},"methodIdentifiers":{"validateData(bytes)":"a6ffa36c","validateSignature(bytes32,bytes,address)":"7810e19f"}}}}}