{
  "_format": "hh-sol-artifact-1",
  "contractName": "RWA",
  "sourceName": "contracts/RWA.sol",
  "abi": [
    {
      "inputs": [],
      "stateMutability": "nonpayable",
      "type": "constructor"
    },
    {
      "anonymous": false,
      "inputs": [
        {
          "indexed": true,
          "internalType": "address",
          "name": "owner",
          "type": "address"
        },
        {
          "indexed": true,
          "internalType": "address",
          "name": "approved",
          "type": "address"
        },
        {
          "indexed": true,
          "internalType": "uint256",
          "name": "tokenId",
          "type": "uint256"
        }
      ],
      "name": "Approval",
      "type": "event"
    },
    {
      "anonymous": false,
      "inputs": [
        {
          "indexed": true,
          "internalType": "address",
          "name": "owner",
          "type": "address"
        },
        {
          "indexed": true,
          "internalType": "address",
          "name": "operator",
          "type": "address"
        },
        {
          "indexed": false,
          "internalType": "bool",
          "name": "approved",
          "type": "bool"
        }
      ],
      "name": "ApprovalForAll",
      "type": "event"
    },
    {
      "anonymous": false,
      "inputs": [
        {
          "indexed": false,
          "internalType": "uint256",
          "name": "tokenId",
          "type": "uint256"
        },
        {
          "indexed": false,
          "internalType": "address[]",
          "name": "owners",
          "type": "address[]"
        },
        {
          "indexed": false,
          "internalType": "uint16[]",
          "name": "shares",
          "type": "uint16[]"
        }
      ],
      "name": "Fractional_Ownership_Set",
      "type": "event"
    },
    {
      "anonymous": false,
      "inputs": [
        {
          "indexed": false,
          "internalType": "uint256",
          "name": "tokenId",
          "type": "uint256"
        },
        {
          "indexed": false,
          "internalType": "string",
          "name": "newMetadataURI",
          "type": "string"
        },
        {
          "indexed": false,
          "internalType": "bytes32",
          "name": "metadataHash",
          "type": "bytes32"
        }
      ],
      "name": "Metadata_Updated",
      "type": "event"
    },
    {
      "anonymous": false,
      "inputs": [
        {
          "indexed": false,
          "internalType": "uint256",
          "name": "tokenId",
          "type": "uint256"
        },
        {
          "indexed": false,
          "internalType": "address",
          "name": "owner",
          "type": "address"
        },
        {
          "indexed": false,
          "internalType": "string",
          "name": "metadataURI",
          "type": "string"
        }
      ],
      "name": "RWA_Minted",
      "type": "event"
    },
    {
      "anonymous": false,
      "inputs": [
        {
          "indexed": true,
          "internalType": "bytes32",
          "name": "role",
          "type": "bytes32"
        },
        {
          "indexed": true,
          "internalType": "bytes32",
          "name": "previousAdminRole",
          "type": "bytes32"
        },
        {
          "indexed": true,
          "internalType": "bytes32",
          "name": "newAdminRole",
          "type": "bytes32"
        }
      ],
      "name": "RoleAdminChanged",
      "type": "event"
    },
    {
      "anonymous": false,
      "inputs": [
        {
          "indexed": true,
          "internalType": "bytes32",
          "name": "role",
          "type": "bytes32"
        },
        {
          "indexed": true,
          "internalType": "address",
          "name": "account",
          "type": "address"
        },
        {
          "indexed": true,
          "internalType": "address",
          "name": "sender",
          "type": "address"
        }
      ],
      "name": "RoleGranted",
      "type": "event"
    },
    {
      "anonymous": false,
      "inputs": [
        {
          "indexed": true,
          "internalType": "bytes32",
          "name": "role",
          "type": "bytes32"
        },
        {
          "indexed": true,
          "internalType": "address",
          "name": "account",
          "type": "address"
        },
        {
          "indexed": true,
          "internalType": "address",
          "name": "sender",
          "type": "address"
        }
      ],
      "name": "RoleRevoked",
      "type": "event"
    },
    {
      "anonymous": false,
      "inputs": [
        {
          "indexed": true,
          "internalType": "address",
          "name": "from",
          "type": "address"
        },
        {
          "indexed": true,
          "internalType": "address",
          "name": "to",
          "type": "address"
        },
        {
          "indexed": true,
          "internalType": "uint256",
          "name": "tokenId",
          "type": "uint256"
        }
      ],
      "name": "Transfer",
      "type": "event"
    },
    {
      "inputs": [],
      "name": "DEFAULT_ADMIN_ROLE",
      "outputs": [
        {
          "internalType": "bytes32",
          "name": "",
          "type": "bytes32"
        }
      ],
      "stateMutability": "view",
      "type": "function"
    },
    {
      "inputs": [],
      "name": "MINTER_ROLE",
      "outputs": [
        {
          "internalType": "bytes32",
          "name": "",
          "type": "bytes32"
        }
      ],
      "stateMutability": "view",
      "type": "function"
    },
    {
      "inputs": [],
      "name": "UPDATER_ROLE",
      "outputs": [
        {
          "internalType": "bytes32",
          "name": "",
          "type": "bytes32"
        }
      ],
      "stateMutability": "view",
      "type": "function"
    },
    {
      "inputs": [
        {
          "internalType": "address",
          "name": "to",
          "type": "address"
        },
        {
          "internalType": "uint256",
          "name": "tokenId",
          "type": "uint256"
        }
      ],
      "name": "approve",
      "outputs": [],
      "stateMutability": "nonpayable",
      "type": "function"
    },
    {
      "inputs": [
        {
          "internalType": "address",
          "name": "owner",
          "type": "address"
        }
      ],
      "name": "balanceOf",
      "outputs": [
        {
          "internalType": "uint256",
          "name": "",
          "type": "uint256"
        }
      ],
      "stateMutability": "view",
      "type": "function"
    },
    {
      "inputs": [
        {
          "internalType": "uint256",
          "name": "",
          "type": "uint256"
        },
        {
          "internalType": "uint256",
          "name": "",
          "type": "uint256"
        }
      ],
      "name": "fractionalOwners",
      "outputs": [
        {
          "internalType": "address",
          "name": "",
          "type": "address"
        }
      ],
      "stateMutability": "view",
      "type": "function"
    },
    {
      "inputs": [
        {
          "internalType": "uint256",
          "name": "tokenId",
          "type": "uint256"
        }
      ],
      "name": "getApproved",
      "outputs": [
        {
          "internalType": "address",
          "name": "",
          "type": "address"
        }
      ],
      "stateMutability": "view",
      "type": "function"
    },
    {
      "inputs": [
        {
          "internalType": "bytes32",
          "name": "role",
          "type": "bytes32"
        }
      ],
      "name": "getRoleAdmin",
      "outputs": [
        {
          "internalType": "bytes32",
          "name": "",
          "type": "bytes32"
        }
      ],
      "stateMutability": "view",
      "type": "function"
    },
    {
      "inputs": [
        {
          "internalType": "bytes32",
          "name": "role",
          "type": "bytes32"
        },
        {
          "internalType": "address",
          "name": "account",
          "type": "address"
        }
      ],
      "name": "grantRole",
      "outputs": [],
      "stateMutability": "nonpayable",
      "type": "function"
    },
    {
      "inputs": [
        {
          "internalType": "bytes32",
          "name": "role",
          "type": "bytes32"
        },
        {
          "internalType": "address",
          "name": "account",
          "type": "address"
        }
      ],
      "name": "hasRole",
      "outputs": [
        {
          "internalType": "bool",
          "name": "",
          "type": "bool"
        }
      ],
      "stateMutability": "view",
      "type": "function"
    },
    {
      "inputs": [
        {
          "internalType": "address",
          "name": "owner",
          "type": "address"
        },
        {
          "internalType": "address",
          "name": "operator",
          "type": "address"
        }
      ],
      "name": "isApprovedForAll",
      "outputs": [
        {
          "internalType": "bool",
          "name": "",
          "type": "bool"
        }
      ],
      "stateMutability": "view",
      "type": "function"
    },
    {
      "inputs": [
        {
          "internalType": "uint256",
          "name": "",
          "type": "uint256"
        }
      ],
      "name": "metadataURIs",
      "outputs": [
        {
          "internalType": "string",
          "name": "",
          "type": "string"
        }
      ],
      "stateMutability": "view",
      "type": "function"
    },
    {
      "inputs": [
        {
          "internalType": "address",
          "name": "to",
          "type": "address"
        },
        {
          "internalType": "string",
          "name": "metadataURI",
          "type": "string"
        }
      ],
      "name": "mintRWA",
      "outputs": [],
      "stateMutability": "nonpayable",
      "type": "function"
    },
    {
      "inputs": [],
      "name": "name",
      "outputs": [
        {
          "internalType": "string",
          "name": "",
          "type": "string"
        }
      ],
      "stateMutability": "view",
      "type": "function"
    },
    {
      "inputs": [
        {
          "internalType": "uint256",
          "name": "tokenId",
          "type": "uint256"
        }
      ],
      "name": "ownerOf",
      "outputs": [
        {
          "internalType": "address",
          "name": "",
          "type": "address"
        }
      ],
      "stateMutability": "view",
      "type": "function"
    },
    {
      "inputs": [
        {
          "internalType": "uint256",
          "name": "",
          "type": "uint256"
        },
        {
          "internalType": "address",
          "name": "",
          "type": "address"
        }
      ],
      "name": "ownershipShares",
      "outputs": [
        {
          "internalType": "uint16",
          "name": "",
          "type": "uint16"
        }
      ],
      "stateMutability": "view",
      "type": "function"
    },
    {
      "inputs": [
        {
          "internalType": "bytes32",
          "name": "role",
          "type": "bytes32"
        },
        {
          "internalType": "address",
          "name": "account",
          "type": "address"
        }
      ],
      "name": "renounceRole",
      "outputs": [],
      "stateMutability": "nonpayable",
      "type": "function"
    },
    {
      "inputs": [
        {
          "internalType": "bytes32",
          "name": "role",
          "type": "bytes32"
        },
        {
          "internalType": "address",
          "name": "account",
          "type": "address"
        }
      ],
      "name": "revokeRole",
      "outputs": [],
      "stateMutability": "nonpayable",
      "type": "function"
    },
    {
      "inputs": [
        {
          "internalType": "address",
          "name": "from",
          "type": "address"
        },
        {
          "internalType": "address",
          "name": "to",
          "type": "address"
        },
        {
          "internalType": "uint256",
          "name": "tokenId",
          "type": "uint256"
        }
      ],
      "name": "safeTransferFrom",
      "outputs": [],
      "stateMutability": "nonpayable",
      "type": "function"
    },
    {
      "inputs": [
        {
          "internalType": "address",
          "name": "from",
          "type": "address"
        },
        {
          "internalType": "address",
          "name": "to",
          "type": "address"
        },
        {
          "internalType": "uint256",
          "name": "tokenId",
          "type": "uint256"
        },
        {
          "internalType": "bytes",
          "name": "data",
          "type": "bytes"
        }
      ],
      "name": "safeTransferFrom",
      "outputs": [],
      "stateMutability": "nonpayable",
      "type": "function"
    },
    {
      "inputs": [
        {
          "internalType": "address",
          "name": "operator",
          "type": "address"
        },
        {
          "internalType": "bool",
          "name": "approved",
          "type": "bool"
        }
      ],
      "name": "setApprovalForAll",
      "outputs": [],
      "stateMutability": "nonpayable",
      "type": "function"
    },
    {
      "inputs": [
        {
          "internalType": "uint256",
          "name": "tokenId",
          "type": "uint256"
        },
        {
          "internalType": "address[]",
          "name": "owners",
          "type": "address[]"
        },
        {
          "internalType": "uint16[]",
          "name": "shares",
          "type": "uint16[]"
        }
      ],
      "name": "setFractionalOwnership",
      "outputs": [],
      "stateMutability": "nonpayable",
      "type": "function"
    },
    {
      "inputs": [
        {
          "internalType": "bytes4",
          "name": "interfaceId",
          "type": "bytes4"
        }
      ],
      "name": "supportsInterface",
      "outputs": [
        {
          "internalType": "bool",
          "name": "",
          "type": "bool"
        }
      ],
      "stateMutability": "view",
      "type": "function"
    },
    {
      "inputs": [],
      "name": "symbol",
      "outputs": [
        {
          "internalType": "string",
          "name": "",
          "type": "string"
        }
      ],
      "stateMutability": "view",
      "type": "function"
    },
    {
      "inputs": [],
      "name": "tokenIdCounter",
      "outputs": [
        {
          "internalType": "uint256",
          "name": "",
          "type": "uint256"
        }
      ],
      "stateMutability": "view",
      "type": "function"
    },
    {
      "inputs": [
        {
          "internalType": "uint256",
          "name": "tokenId",
          "type": "uint256"
        }
      ],
      "name": "tokenURI",
      "outputs": [
        {
          "internalType": "string",
          "name": "",
          "type": "string"
        }
      ],
      "stateMutability": "view",
      "type": "function"
    },
    {
      "inputs": [
        {
          "internalType": "address",
          "name": "from",
          "type": "address"
        },
        {
          "internalType": "address",
          "name": "to",
          "type": "address"
        },
        {
          "internalType": "uint256",
          "name": "tokenId",
          "type": "uint256"
        }
      ],
      "name": "transferFrom",
      "outputs": [],
      "stateMutability": "nonpayable",
      "type": "function"
    },
    {
      "inputs": [
        {
          "internalType": "uint256",
          "name": "tokenId",
          "type": "uint256"
        },
        {
          "internalType": "string",
          "name": "metadataURI",
          "type": "string"
        },
        {
          "internalType": "bytes32",
          "name": "metadataHash",
          "type": "bytes32"
        }
      ],
      "name": "updateMetadata",
      "outputs": [],
      "stateMutability": "nonpayable",
      "type": "function"
    }
  ],
  "bytecode": "0x60806040523480156200001157600080fd5b506040518060400160405280600e81526020017f5265616c576f726c6441737365740000000000000000000000000000000000008152506040518060400160405280600381526020017f5257410000000000000000000000000000000000000000000000000000000000815250816000908051906020019062000096929190620002ac565b508060019080519060200190620000af929190620002ac565b505050620000c76000801b336200013160201b60201c565b620000f97f9f2df0fed2c77648de5860a4cc508cd0818c85b8b8a1ab4ceeef8d981c8956a6336200013160201b60201c565b6200012b7f73e573f9566d61418a34d5de3ff49360f9c51fec37f7486551670290f6285dab336200013160201b60201c565b620003c1565b6200014382826200014760201b60201c565b5050565b6200015982826200023960201b60201c565b620002355760016006600084815260200190815260200160002060000160008373ffffffffffffffffffffffffffffffffffffffff1673ffffffffffffffffffffffffffffffffffffffff16815260200190815260200160002060006101000a81548160ff021916908315150217905550620001da620002a460201b60201c565b73ffffffffffffffffffffffffffffffffffffffff168173ffffffffffffffffffffffffffffffffffffffff16837f2f8788117e7eff1d82e926ec794901d17c78024a50270940304540a733656f0d60405160405180910390a45b5050565b60006006600084815260200190815260200160002060000160008373ffffffffffffffffffffffffffffffffffffffff1673ffffffffffffffffffffffffffffffffffffffff16815260200190815260200160002060009054906101000a900460ff16905092915050565b600033905090565b828054620002ba906200035c565b90600052602060002090601f016020900481019282620002de57600085556200032a565b82601f10620002f957805160ff19168380011785556200032a565b828001600101855582156200032a579182015b82811115620003295782518255916020019190600101906200030c565b5b5090506200033991906200033d565b5090565b5b80821115620003585760008160009055506001016200033e565b5090565b600060028204905060018216806200037557607f821691505b602082108114156200038c576200038b62000392565b5b50919050565b7f4e487b7100000000000000000000000000000000000000000000000000000000600052602260045260246000fd5b61425080620003d16000396000f3fe608060405234801561001057600080fd5b50600436106101c45760003560e01c806391d14854116100f9578063b88d4fde11610097578063d539139311610071578063d53913931461053b578063d547741f14610559578063e0fe4ba514610575578063e985e9c514610591576101c4565b8063b88d4fde146104bf578063c81a4432146104db578063c87b56dd1461050b576101c4565b8063a217fddf116100d3578063a217fddf14610439578063a22cb46514610457578063a649fb9014610473578063b68cb6841461048f576101c4565b806391d14854146103cd57806395d89b41146103fd57806398bdf6f51461041b576101c4565b806336568abe1161016657806347e633801161014057806347e633801461031f5780634ed5c5581461033d5780636352211e1461036d57806370a082311461039d576101c4565b806336568abe146102cb5780633eeb46dc146102e757806342842e0e14610303576101c4565b8063095ea7b3116101a2578063095ea7b31461024757806323b872dd14610263578063248a9ca31461027f5780632f2ff15d146102af576101c4565b806301ffc9a7146101c957806306fdde03146101f9578063081812fc14610217575b600080fd5b6101e360048036038101906101de9190612e9d565b6105c1565b6040516101f091906135a9565b60405180910390f35b6102016105e3565b60405161020e91906135df565b60405180910390f35b610231600480360381019061022c9190612eef565b610675565b60405161023e9190613542565b60405180910390f35b610261600480360381019061025c9190612dfc565b6106bb565b005b61027d60048036038101906102789190612ca2565b6107d3565b005b61029960048036038101906102949190612e38565b610833565b6040516102a691906135c4565b60405180910390f35b6102c960048036038101906102c49190612e61565b610853565b005b6102e560048036038101906102e09190612e61565b610874565b005b61030160048036038101906102fc9190612fd3565b6108f7565b005b61031d60048036038101906103189190612ca2565b6109d2565b005b6103276109f2565b60405161033491906135c4565b60405180910390f35b61035760048036038101906103529190612eef565b610a16565b60405161036491906135df565b60405180910390f35b61038760048036038101906103829190612eef565b610ab6565b6040516103949190613542565b60405180910390f35b6103b760048036038101906103b29190612c3d565b610b3d565b6040516103c4919061381c565b60405180910390f35b6103e760048036038101906103e29190612e61565b610bf5565b6040516103f491906135a9565b60405180910390f35b610405610c60565b60405161041291906135df565b60405180910390f35b610423610cf2565b604051610430919061381c565b60405180910390f35b610441610cf8565b60405161044e91906135c4565b60405180910390f35b610471600480360381019061046c9190612d6c565b610cff565b005b61048d60048036038101906104889190612da8565b610d15565b005b6104a960048036038101906104a4919061303a565b610dcd565b6040516104b69190613542565b60405180910390f35b6104d960048036038101906104d49190612cf1565b610e1b565b005b6104f560048036038101906104f09190612f18565b610e7d565b6040516105029190613801565b60405180910390f35b61052560048036038101906105209190612eef565b610ead565b60405161053291906135df565b60405180910390f35b610543610f15565b60405161055091906135c4565b60405180910390f35b610573600480360381019061056e9190612e61565b610f39565b005b61058f600480360381019061058a9190612f54565b610f5a565b005b6105ab60048036038101906105a69190612c66565b6111f3565b6040516105b891906135a9565b60405180910390f35b60006105cc82611287565b806105dc57506105db82611369565b5b9050919050565b6060600080546105f290613c34565b80601f016020809104026020016040519081016040528092919081815260200182805461061e90613c34565b801561066b5780601f106106405761010080835404028352916020019161066b565b820191906000526020600020905b81548152906001019060200180831161064e57829003601f168201915b5050505050905090565b6000610680826113e3565b6004600083815260200190815260200160002060009054906101000a900473ffffffffffffffffffffffffffffffffffffffff169050919050565b60006106c682610ab6565b90508073ffffffffffffffffffffffffffffffffffffffff168373ffffffffffffffffffffffffffffffffffffffff161415610737576040517f08c379a000000000000000000000000000000000000000000000000000000000815260040161072e90613781565b60405180910390fd5b8073ffffffffffffffffffffffffffffffffffffffff1661075661142e565b73ffffffffffffffffffffffffffffffffffffffff16148061078557506107848161077f61142e565b6111f3565b5b6107c4576040517f08c379a00000000000000000000000000000000000000000000000000000000081526004016107bb906137a1565b60405180910390fd5b6107ce8383611436565b505050565b6107e46107de61142e565b826114ef565b610823576040517f08c379a000000000000000000000000000000000000000000000000000000000815260040161081a90613621565b60405180910390fd5b61082e838383611584565b505050565b600060066000838152602001908152602001600020600101549050919050565b61085c82610833565b6108658161187e565b61086f8383611892565b505050565b61087c61142e565b73ffffffffffffffffffffffffffffffffffffffff168173ffffffffffffffffffffffffffffffffffffffff16146108e9576040517f08c379a00000000000000000000000000000000000000000000000000000000081526004016108e0906137e1565b60405180910390fd5b6108f38282611973565b5050565b7f73e573f9566d61418a34d5de3ff49360f9c51fec37f7486551670290f6285dab6109218161187e565b61092a84611a55565b610969576040517f08c379a0000000000000000000000000000000000000000000000000000000008152600401610960906136e1565b60405180910390fd5b82600860008681526020019081526020016000209080519060200190610990929190612881565b507f624065b7e6eac87d46f6c3ec8476a1ad0ebb9c051b5eb5f36fa90779ad9250c08484846040516109c4939291906138ba565b60405180910390a150505050565b6109ed83838360405180602001604052806000815250610e1b565b505050565b7f73e573f9566d61418a34d5de3ff49360f9c51fec37f7486551670290f6285dab81565b60086020528060005260406000206000915090508054610a3590613c34565b80601f0160208091040260200160405190810160405280929190818152602001828054610a6190613c34565b8015610aae5780601f10610a8357610100808354040283529160200191610aae565b820191906000526020600020905b815481529060010190602001808311610a9157829003601f168201915b505050505081565b600080610ac283611a96565b9050600073ffffffffffffffffffffffffffffffffffffffff168173ffffffffffffffffffffffffffffffffffffffff161415610b34576040517f08c379a0000000000000000000000000000000000000000000000000000000008152600401610b2b90613761565b60405180910390fd5b80915050919050565b60008073ffffffffffffffffffffffffffffffffffffffff168273ffffffffffffffffffffffffffffffffffffffff161415610bae576040517f08c379a0000000000000000000000000000000000000000000000000000000008152600401610ba590613701565b60405180910390fd5b600360008373ffffffffffffffffffffffffffffffffffffffff1673ffffffffffffffffffffffffffffffffffffffff168152602001908152602001600020549050919050565b60006006600084815260200190815260200160002060000160008373ffffffffffffffffffffffffffffffffffffffff1673ffffffffffffffffffffffffffffffffffffffff16815260200190815260200160002060009054906101000a900460ff16905092915050565b606060018054610c6f90613c34565b80601f0160208091040260200160405190810160405280929190818152602001828054610c9b90613c34565b8015610ce85780601f10610cbd57610100808354040283529160200191610ce8565b820191906000526020600020905b815481529060010190602001808311610ccb57829003601f168201915b5050505050905090565b60075481565b6000801b81565b610d11610d0a61142e565b8383611ad3565b5050565b7f9f2df0fed2c77648de5860a4cc508cd0818c85b8b8a1ab4ceeef8d981c8956a6610d3f8161187e565b600060076000815480929190610d5490613c97565b919050559050610d648482611c40565b82600860008381526020019081526020016000209080519060200190610d8b929190612881565b507fe691cc6565f19b3b03efd7f12122ca643e33298bdd597e728774455bff70f692818585604051610dbf93929190613837565b60405180910390a150505050565b60096020528160005260406000208181548110610de957600080fd5b906000526020600020016000915091509054906101000a900473ffffffffffffffffffffffffffffffffffffffff1681565b610e2c610e2661142e565b836114ef565b610e6b576040517f08c379a0000000000000000000000000000000000000000000000000000000008152600401610e6290613621565b60405180910390fd5b610e7784848484611c5e565b50505050565b600a6020528160005260406000206020528060005260406000206000915091509054906101000a900461ffff1681565b6060610eb8826113e3565b6000610ec2611cba565b90506000815111610ee25760405180602001604052806000815250610f0d565b80610eec84611cd1565b604051602001610efd9291906134e4565b6040516020818303038152906040525b915050919050565b7f9f2df0fed2c77648de5860a4cc508cd0818c85b8b8a1ab4ceeef8d981c8956a681565b610f4282610833565b610f4b8161187e565b610f558383611973565b505050565b7f9f2df0fed2c77648de5860a4cc508cd0818c85b8b8a1ab4ceeef8d981c8956a6610f848161187e565b8151835114610fc8576040517f08c379a0000000000000000000000000000000000000000000000000000000008152600401610fbf90613721565b60405180910390fd5b6000805b835181101561103a5783818151811061100e577f4e487b7100000000000000000000000000000000000000000000000000000000600052603260045260246000fd5b602002602001015161ffff16826110259190613a8c565b9150808061103290613c97565b915050610fcc565b506064811461107e576040517f08c379a0000000000000000000000000000000000000000000000000000000008152600401611075906137c1565b60405180910390fd5b836009600087815260200190815260200160002090805190602001906110a5929190612907565b5060005b84518110156111b0578381815181106110eb577f4e487b7100000000000000000000000000000000000000000000000000000000600052603260045260246000fd5b6020026020010151600a60008881526020019081526020016000206000878481518110611141577f4e487b7100000000000000000000000000000000000000000000000000000000600052603260045260246000fd5b602002602001015173ffffffffffffffffffffffffffffffffffffffff1673ffffffffffffffffffffffffffffffffffffffff16815260200190815260200160002060006101000a81548161ffff021916908361ffff16021790555080806111a890613c97565b9150506110a9565b507f80610c8214fd3d4dd3e349c4635054787d418d2ec47ad9b840da16c45a21ab828585856040516111e493929190613875565b60405180910390a15050505050565b6000600560008473ffffffffffffffffffffffffffffffffffffffff1673ffffffffffffffffffffffffffffffffffffffff16815260200190815260200160002060008373ffffffffffffffffffffffffffffffffffffffff1673ffffffffffffffffffffffffffffffffffffffff16815260200190815260200160002060009054906101000a900460ff16905092915050565b60007f80ac58cd000000000000000000000000000000000000000000000000000000007bffffffffffffffffffffffffffffffffffffffffffffffffffffffff1916827bffffffffffffffffffffffffffffffffffffffffffffffffffffffff1916148061135257507f5b5e139f000000000000000000000000000000000000000000000000000000007bffffffffffffffffffffffffffffffffffffffffffffffffffffffff1916827bffffffffffffffffffffffffffffffffffffffffffffffffffffffff1916145b80611362575061136182611df5565b5b9050919050565b60007f7965db0b000000000000000000000000000000000000000000000000000000007bffffffffffffffffffffffffffffffffffffffffffffffffffffffff1916827bffffffffffffffffffffffffffffffffffffffffffffffffffffffff191614806113dc57506113db82611287565b5b9050919050565b6113ec81611a55565b61142b576040517f08c379a000000000000000000000000000000000000000000000000000000000815260040161142290613761565b60405180910390fd5b50565b600033905090565b816004600083815260200190815260200160002060006101000a81548173ffffffffffffffffffffffffffffffffffffffff021916908373ffffffffffffffffffffffffffffffffffffffff160217905550808273ffffffffffffffffffffffffffffffffffffffff166114a983610ab6565b73ffffffffffffffffffffffffffffffffffffffff167f8c5be1e5ebec7d5bd14f71427d1e84f3dd0314c0f7b2291e5b200ac8c7c3b92560405160405180910390a45050565b6000806114fb83610ab6565b90508073ffffffffffffffffffffffffffffffffffffffff168473ffffffffffffffffffffffffffffffffffffffff16148061153d575061153c81856111f3565b5b8061157b57508373ffffffffffffffffffffffffffffffffffffffff1661156384610675565b73ffffffffffffffffffffffffffffffffffffffff16145b91505092915050565b8273ffffffffffffffffffffffffffffffffffffffff166115a482610ab6565b73ffffffffffffffffffffffffffffffffffffffff16146115fa576040517f08c379a00000000000000000000000000000000000000000000000000000000081526004016115f190613661565b60405180910390fd5b600073ffffffffffffffffffffffffffffffffffffffff168273ffffffffffffffffffffffffffffffffffffffff16141561166a576040517f08c379a0000000000000000000000000000000000000000000000000000000008152600401611661906136a1565b60405180910390fd5b6116778383836001611e5f565b8273ffffffffffffffffffffffffffffffffffffffff1661169782610ab6565b73ffffffffffffffffffffffffffffffffffffffff16146116ed576040517f08c379a00000000000000000000000000000000000000000000000000000000081526004016116e490613661565b60405180910390fd5b6004600082815260200190815260200160002060006101000a81549073ffffffffffffffffffffffffffffffffffffffff02191690556001600360008573ffffffffffffffffffffffffffffffffffffffff1673ffffffffffffffffffffffffffffffffffffffff168152602001908152602001600020600082825403925050819055506001600360008473ffffffffffffffffffffffffffffffffffffffff1673ffffffffffffffffffffffffffffffffffffffff16815260200190815260200160002060008282540192505081905550816002600083815260200190815260200160002060006101000a81548173ffffffffffffffffffffffffffffffffffffffff021916908373ffffffffffffffffffffffffffffffffffffffff160217905550808273ffffffffffffffffffffffffffffffffffffffff168473ffffffffffffffffffffffffffffffffffffffff167fddf252ad1be2c89b69c2b068fc378daa952ba7f163c4a11628f55a4df523b3ef60405160405180910390a46118798383836001611e65565b505050565b61188f8161188a61142e565b611e6b565b50565b61189c8282610bf5565b61196f5760016006600084815260200190815260200160002060000160008373ffffffffffffffffffffffffffffffffffffffff1673ffffffffffffffffffffffffffffffffffffffff16815260200190815260200160002060006101000a81548160ff02191690831515021790555061191461142e565b73ffffffffffffffffffffffffffffffffffffffff168173ffffffffffffffffffffffffffffffffffffffff16837f2f8788117e7eff1d82e926ec794901d17c78024a50270940304540a733656f0d60405160405180910390a45b5050565b61197d8282610bf5565b15611a515760006006600084815260200190815260200160002060000160008373ffffffffffffffffffffffffffffffffffffffff1673ffffffffffffffffffffffffffffffffffffffff16815260200190815260200160002060006101000a81548160ff0219169083151502179055506119f661142e565b73ffffffffffffffffffffffffffffffffffffffff168173ffffffffffffffffffffffffffffffffffffffff16837ff6391f5c32d9c69d2a47ea670b442974b53935d1edc7fd64eb21e047a839171b60405160405180910390a45b5050565b60008073ffffffffffffffffffffffffffffffffffffffff16611a7783611a96565b73ffffffffffffffffffffffffffffffffffffffff1614159050919050565b60006002600083815260200190815260200160002060009054906101000a900473ffffffffffffffffffffffffffffffffffffffff169050919050565b8173ffffffffffffffffffffffffffffffffffffffff168373ffffffffffffffffffffffffffffffffffffffff161415611b42576040517f08c379a0000000000000000000000000000000000000000000000000000000008152600401611b39906136c1565b60405180910390fd5b80600560008573ffffffffffffffffffffffffffffffffffffffff1673ffffffffffffffffffffffffffffffffffffffff16815260200190815260200160002060008473ffffffffffffffffffffffffffffffffffffffff1673ffffffffffffffffffffffffffffffffffffffff16815260200190815260200160002060006101000a81548160ff0219169083151502179055508173ffffffffffffffffffffffffffffffffffffffff168373ffffffffffffffffffffffffffffffffffffffff167f17307eab39ab6107e8899845ad3d59bd9653f200f220920489ca2b5937696c3183604051611c3391906135a9565b60405180910390a3505050565b611c5a828260405180602001604052806000815250611ef0565b5050565b611c69848484611584565b611c7584848484611f4b565b611cb4576040517f08c379a0000000000000000000000000000000000000000000000000000000008152600401611cab90613641565b60405180910390fd5b50505050565b606060405180602001604052806000815250905090565b606060006001611ce0846120e2565b01905060008167ffffffffffffffff811115611d25577f4e487b7100000000000000000000000000000000000000000000000000000000600052604160045260246000fd5b6040519080825280601f01601f191660200182016040528015611d575781602001600182028036833780820191505090505b509050600082602001820190505b600115611dea578080600190039150507f3031323334353637383961626364656600000000000000000000000000000000600a86061a8153600a8581611dd4577f4e487b7100000000000000000000000000000000000000000000000000000000600052601260045260246000fd5b0494506000851415611de557611dea565b611d65565b819350505050919050565b60007f01ffc9a7000000000000000000000000000000000000000000000000000000007bffffffffffffffffffffffffffffffffffffffffffffffffffffffff1916827bffffffffffffffffffffffffffffffffffffffffffffffffffffffff1916149050919050565b50505050565b50505050565b611e758282610bf5565b611eec57611e8281612319565b611e908360001c6020612346565b604051602001611ea1929190613508565b6040516020818303038152906040526040517f08c379a0000000000000000000000000000000000000000000000000000000008152600401611ee391906135df565b60405180910390fd5b5050565b611efa8383612640565b611f076000848484611f4b565b611f46576040517f08c379a0000000000000000000000000000000000000000000000000000000008152600401611f3d90613641565b60405180910390fd5b505050565b6000611f6c8473ffffffffffffffffffffffffffffffffffffffff1661285e565b156120d5578373ffffffffffffffffffffffffffffffffffffffff1663150b7a02611f9561142e565b8786866040518563ffffffff1660e01b8152600401611fb7949392919061355d565b602060405180830381600087803b158015611fd157600080fd5b505af192505050801561200257506040513d601f19601f82011682018060405250810190611fff9190612ec6565b60015b612085573d8060008114612032576040519150601f19603f3d011682016040523d82523d6000602084013e612037565b606091505b5060008151141561207d576040517f08c379a000000000000000000000000000000000000000000000000000000000815260040161207490613641565b60405180910390fd5b805181602001fd5b63150b7a0260e01b7bffffffffffffffffffffffffffffffffffffffffffffffffffffffff1916817bffffffffffffffffffffffffffffffffffffffffffffffffffffffff1916149150506120da565b600190505b949350505050565b600080600090507a184f03e93ff9f4daa797ed6e38ed64bf6a1f0100000000000000008310612166577a184f03e93ff9f4daa797ed6e38ed64bf6a1f010000000000000000838161215c577f4e487b7100000000000000000000000000000000000000000000000000000000600052601260045260246000fd5b0492506040810190505b6d04ee2d6d415b85acef810000000083106121c9576d04ee2d6d415b85acef810000000083816121bf577f4e487b7100000000000000000000000000000000000000000000000000000000600052601260045260246000fd5b0492506020810190505b662386f26fc10000831061221e57662386f26fc100008381612214577f4e487b7100000000000000000000000000000000000000000000000000000000600052601260045260246000fd5b0492506010810190505b6305f5e100831061226d576305f5e1008381612263577f4e487b7100000000000000000000000000000000000000000000000000000000600052601260045260246000fd5b0492506008810190505b61271083106122b85761271083816122ae577f4e487b7100000000000000000000000000000000000000000000000000000000600052601260045260246000fd5b0492506004810190505b6064831061230157606483816122f7577f4e487b7100000000000000000000000000000000000000000000000000000000600052601260045260246000fd5b0492506002810190505b600a8310612310576001810190505b80915050919050565b606061233f8273ffffffffffffffffffffffffffffffffffffffff16601460ff16612346565b9050919050565b6060600060028360026123599190613ae2565b6123639190613a8c565b67ffffffffffffffff8111156123a2577f4e487b7100000000000000000000000000000000000000000000000000000000600052604160045260246000fd5b6040519080825280601f01601f1916602001820160405280156123d45781602001600182028036833780820191505090505b5090507f300000000000000000000000000000000000000000000000000000000000000081600081518110612432577f4e487b7100000000000000000000000000000000000000000000000000000000600052603260045260246000fd5b60200101907effffffffffffffffffffffffffffffffffffffffffffffffffffffffffffff1916908160001a9053507f7800000000000000000000000000000000000000000000000000000000000000816001815181106124bc577f4e487b7100000000000000000000000000000000000000000000000000000000600052603260045260246000fd5b60200101907effffffffffffffffffffffffffffffffffffffffffffffffffffffffffffff1916908160001a905350600060018460026124fc9190613ae2565b6125069190613a8c565b90505b60018111156125f2577f3031323334353637383961626364656600000000000000000000000000000000600f86166010811061256e577f4e487b7100000000000000000000000000000000000000000000000000000000600052603260045260246000fd5b1a60f81b8282815181106125ab577f4e487b7100000000000000000000000000000000000000000000000000000000600052603260045260246000fd5b60200101907effffffffffffffffffffffffffffffffffffffffffffffffffffffffffffff1916908160001a905350600485901c9450806125eb90613c0a565b9050612509565b5060008414612636576040517f08c379a000000000000000000000000000000000000000000000000000000000815260040161262d90613601565b60405180910390fd5b8091505092915050565b600073ffffffffffffffffffffffffffffffffffffffff168273ffffffffffffffffffffffffffffffffffffffff1614156126b0576040517f08c379a00000000000000000000000000000000000000000000000000000000081526004016126a790613741565b60405180910390fd5b6126b981611a55565b156126f9576040517f08c379a00000000000000000000000000000000000000000000000000000000081526004016126f090613681565b60405180910390fd5b612707600083836001611e5f565b61271081611a55565b15612750576040517f08c379a000000000000000000000000000000000000000000000000000000000815260040161274790613681565b60405180910390fd5b6001600360008473ffffffffffffffffffffffffffffffffffffffff1673ffffffffffffffffffffffffffffffffffffffff16815260200190815260200160002060008282540192505081905550816002600083815260200190815260200160002060006101000a81548173ffffffffffffffffffffffffffffffffffffffff021916908373ffffffffffffffffffffffffffffffffffffffff160217905550808273ffffffffffffffffffffffffffffffffffffffff16600073ffffffffffffffffffffffffffffffffffffffff167fddf252ad1be2c89b69c2b068fc378daa952ba7f163c4a11628f55a4df523b3ef60405160405180910390a461285a600083836001611e65565b5050565b6000808273ffffffffffffffffffffffffffffffffffffffff163b119050919050565b82805461288d90613c34565b90600052602060002090601f0160209004810192826128af57600085556128f6565b82601f106128c857805160ff19168380011785556128f6565b828001600101855582156128f6579182015b828111156128f55782518255916020019190600101906128da565b5b5090506129039190612991565b5090565b828054828255906000526020600020908101928215612980579160200282015b8281111561297f5782518260006101000a81548173ffffffffffffffffffffffffffffffffffffffff021916908373ffffffffffffffffffffffffffffffffffffffff16021790555091602001919060010190612927565b5b50905061298d9190612991565b5090565b5b808211156129aa576000816000905550600101612992565b5090565b60006129c16129bc8461391d565b6138f8565b905080838252602082019050828560208602820111156129e057600080fd5b60005b85811015612a1057816129f68882612b02565b8452602084019350602083019250506001810190506129e3565b5050509392505050565b6000612a2d612a2884613949565b6138f8565b90508083825260208201905082856020860282011115612a4c57600080fd5b60005b85811015612a7c5781612a628882612c13565b845260208401935060208301925050600181019050612a4f565b5050509392505050565b6000612a99612a9484613975565b6138f8565b905082815260208101848484011115612ab157600080fd5b612abc848285613bc8565b509392505050565b6000612ad7612ad2846139a6565b6138f8565b905082815260208101848484011115612aef57600080fd5b612afa848285613bc8565b509392505050565b600081359050612b1181614190565b92915050565b600082601f830112612b2857600080fd5b8135612b388482602086016129ae565b91505092915050565b600082601f830112612b5257600080fd5b8135612b62848260208601612a1a565b91505092915050565b600081359050612b7a816141a7565b92915050565b600081359050612b8f816141be565b92915050565b600081359050612ba4816141d5565b92915050565b600081519050612bb9816141d5565b92915050565b600082601f830112612bd057600080fd5b8135612be0848260208601612a86565b91505092915050565b600082601f830112612bfa57600080fd5b8135612c0a848260208601612ac4565b91505092915050565b600081359050612c22816141ec565b92915050565b600081359050612c3781614203565b92915050565b600060208284031215612c4f57600080fd5b6000612c5d84828501612b02565b91505092915050565b60008060408385031215612c7957600080fd5b6000612c8785828601612b02565b9250506020612c9885828601612b02565b9150509250929050565b600080600060608486031215612cb757600080fd5b6000612cc586828701612b02565b9350506020612cd686828701612b02565b9250506040612ce786828701612c28565b9150509250925092565b60008060008060808587031215612d0757600080fd5b6000612d1587828801612b02565b9450506020612d2687828801612b02565b9350506040612d3787828801612c28565b925050606085013567ffffffffffffffff811115612d5457600080fd5b612d6087828801612bbf565b91505092959194509250565b60008060408385031215612d7f57600080fd5b6000612d8d85828601612b02565b9250506020612d9e85828601612b6b565b9150509250929050565b60008060408385031215612dbb57600080fd5b6000612dc985828601612b02565b925050602083013567ffffffffffffffff811115612de657600080fd5b612df285828601612be9565b9150509250929050565b60008060408385031215612e0f57600080fd5b6000612e1d85828601612b02565b9250506020612e2e85828601612c28565b9150509250929050565b600060208284031215612e4a57600080fd5b6000612e5884828501612b80565b91505092915050565b60008060408385031215612e7457600080fd5b6000612e8285828601612b80565b9250506020612e9385828601612b02565b9150509250929050565b600060208284031215612eaf57600080fd5b6000612ebd84828501612b95565b91505092915050565b600060208284031215612ed857600080fd5b6000612ee684828501612baa565b91505092915050565b600060208284031215612f0157600080fd5b6000612f0f84828501612c28565b91505092915050565b60008060408385031215612f2b57600080fd5b6000612f3985828601612c28565b9250506020612f4a85828601612b02565b9150509250929050565b600080600060608486031215612f6957600080fd5b6000612f7786828701612c28565b935050602084013567ffffffffffffffff811115612f9457600080fd5b612fa086828701612b17565b925050604084013567ffffffffffffffff811115612fbd57600080fd5b612fc986828701612b41565b9150509250925092565b600080600060608486031215612fe857600080fd5b6000612ff686828701612c28565b935050602084013567ffffffffffffffff81111561301357600080fd5b61301f86828701612be9565b925050604061303086828701612b80565b9150509250925092565b6000806040838503121561304d57600080fd5b600061305b85828601612c28565b925050602061306c85828601612c28565b9150509250929050565b600061308283836130a6565b60208301905092915050565b600061309a83836134b7565b60208301905092915050565b6130af81613b3c565b82525050565b6130be81613b3c565b82525050565b60006130cf826139f7565b6130d98185613a3d565b93506130e4836139d7565b8060005b838110156131155781516130fc8882613076565b975061310783613a23565b9250506001810190506130e8565b5085935050505092915050565b600061312d82613a02565b6131378185613a4e565b9350613142836139e7565b8060005b8381101561317357815161315a888261308e565b975061316583613a30565b925050600181019050613146565b5085935050505092915050565b61318981613b4e565b82525050565b61319881613b5a565b82525050565b60006131a982613a0d565b6131b38185613a5f565b93506131c3818560208601613bd7565b6131cc81613d6d565b840191505092915050565b60006131e282613a18565b6131ec8185613a70565b93506131fc818560208601613bd7565b61320581613d6d565b840191505092915050565b600061321b82613a18565b6132258185613a81565b9350613235818560208601613bd7565b80840191505092915050565b600061324e602083613a70565b915061325982613d7e565b602082019050919050565b6000613271602d83613a70565b915061327c82613da7565b604082019050919050565b6000613294603283613a70565b915061329f82613df6565b604082019050919050565b60006132b7602583613a70565b91506132c282613e45565b604082019050919050565b60006132da601c83613a70565b91506132e582613e94565b602082019050919050565b60006132fd602483613a70565b915061330882613ebd565b604082019050919050565b6000613320601983613a70565b915061332b82613f0c565b602082019050919050565b6000613343601483613a70565b915061334e82613f35565b602082019050919050565b6000613366602983613a70565b915061337182613f5e565b604082019050919050565b6000613389601183613a70565b915061339482613fad565b602082019050919050565b60006133ac602083613a70565b91506133b782613fd6565b602082019050919050565b60006133cf601883613a70565b91506133da82613fff565b602082019050919050565b60006133f2602183613a70565b91506133fd82614028565b604082019050919050565b6000613415603d83613a70565b915061342082614077565b604082019050919050565b6000613438601783613a81565b9150613443826140c6565b601782019050919050565b600061345b601683613a70565b9150613466826140ef565b602082019050919050565b600061347e601183613a81565b915061348982614118565b601182019050919050565b60006134a1602f83613a70565b91506134ac82614141565b604082019050919050565b6134c081613b90565b82525050565b6134cf81613b90565b82525050565b6134de81613bbe565b82525050565b60006134f08285613210565b91506134fc8284613210565b91508190509392505050565b60006135138261342b565b915061351f8285613210565b915061352a82613471565b91506135368284613210565b91508190509392505050565b600060208201905061355760008301846130b5565b92915050565b600060808201905061357260008301876130b5565b61357f60208301866130b5565b61358c60408301856134d5565b818103606083015261359e818461319e565b905095945050505050565b60006020820190506135be6000830184613180565b92915050565b60006020820190506135d9600083018461318f565b92915050565b600060208201905081810360008301526135f981846131d7565b905092915050565b6000602082019050818103600083015261361a81613241565b9050919050565b6000602082019050818103600083015261363a81613264565b9050919050565b6000602082019050818103600083015261365a81613287565b9050919050565b6000602082019050818103600083015261367a816132aa565b9050919050565b6000602082019050818103600083015261369a816132cd565b9050919050565b600060208201905081810360008301526136ba816132f0565b9050919050565b600060208201905081810360008301526136da81613313565b9050919050565b600060208201905081810360008301526136fa81613336565b9050919050565b6000602082019050818103600083015261371a81613359565b9050919050565b6000602082019050818103600083015261373a8161337c565b9050919050565b6000602082019050818103600083015261375a8161339f565b9050919050565b6000602082019050818103600083015261377a816133c2565b9050919050565b6000602082019050818103600083015261379a816133e5565b9050919050565b600060208201905081810360008301526137ba81613408565b9050919050565b600060208201905081810360008301526137da8161344e565b9050919050565b600060208201905081810360008301526137fa81613494565b9050919050565b600060208201905061381660008301846134c6565b92915050565b600060208201905061383160008301846134d5565b92915050565b600060608201905061384c60008301866134d5565b61385960208301856130b5565b818103604083015261386b81846131d7565b9050949350505050565b600060608201905061388a60008301866134d5565b818103602083015261389c81856130c4565b905081810360408301526138b08184613122565b9050949350505050565b60006060820190506138cf60008301866134d5565b81810360208301526138e181856131d7565b90506138f0604083018461318f565b949350505050565b6000613902613913565b905061390e8282613c66565b919050565b6000604051905090565b600067ffffffffffffffff82111561393857613937613d3e565b5b602082029050602081019050919050565b600067ffffffffffffffff82111561396457613963613d3e565b5b602082029050602081019050919050565b600067ffffffffffffffff8211156139905761398f613d3e565b5b61399982613d6d565b9050602081019050919050565b600067ffffffffffffffff8211156139c1576139c0613d3e565b5b6139ca82613d6d565b9050602081019050919050565b6000819050602082019050919050565b6000819050602082019050919050565b600081519050919050565b600081519050919050565b600081519050919050565b600081519050919050565b6000602082019050919050565b6000602082019050919050565b600082825260208201905092915050565b600082825260208201905092915050565b600082825260208201905092915050565b600082825260208201905092915050565b600081905092915050565b6000613a9782613bbe565b9150613aa283613bbe565b9250827fffffffffffffffffffffffffffffffffffffffffffffffffffffffffffffffff03821115613ad757613ad6613ce0565b5b828201905092915050565b6000613aed82613bbe565b9150613af883613bbe565b9250817fffffffffffffffffffffffffffffffffffffffffffffffffffffffffffffffff0483118215151615613b3157613b30613ce0565b5b828202905092915050565b6000613b4782613b9e565b9050919050565b60008115159050919050565b6000819050919050565b60007fffffffff0000000000000000000000000000000000000000000000000000000082169050919050565b600061ffff82169050919050565b600073ffffffffffffffffffffffffffffffffffffffff82169050919050565b6000819050919050565b82818337600083830152505050565b60005b83811015613bf5578082015181840152602081019050613bda565b83811115613c04576000848401525b50505050565b6000613c1582613bbe565b91506000821415613c2957613c28613ce0565b5b600182039050919050565b60006002820490506001821680613c4c57607f821691505b60208210811415613c6057613c5f613d0f565b5b50919050565b613c6f82613d6d565b810181811067ffffffffffffffff82111715613c8e57613c8d613d3e565b5b80604052505050565b6000613ca282613bbe565b91507fffffffffffffffffffffffffffffffffffffffffffffffffffffffffffffffff821415613cd557613cd4613ce0565b5b600182019050919050565b7f4e487b7100000000000000000000000000000000000000000000000000000000600052601160045260246000fd5b7f4e487b7100000000000000000000000000000000000000000000000000000000600052602260045260246000fd5b7f4e487b7100000000000000000000000000000000000000000000000000000000600052604160045260246000fd5b6000601f19601f8301169050919050565b7f537472696e67733a20686578206c656e67746820696e73756666696369656e74600082015250565b7f4552433732313a2063616c6c6572206973206e6f7420746f6b656e206f776e6560008201527f72206f7220617070726f76656400000000000000000000000000000000000000602082015250565b7f4552433732313a207472616e7366657220746f206e6f6e20455243373231526560008201527f63656976657220696d706c656d656e7465720000000000000000000000000000602082015250565b7f4552433732313a207472616e736665722066726f6d20696e636f72726563742060008201527f6f776e6572000000000000000000000000000000000000000000000000000000602082015250565b7f4552433732313a20746f6b656e20616c7265616479206d696e74656400000000600082015250565b7f4552433732313a207472616e7366657220746f20746865207a65726f2061646460008201527f7265737300000000000000000000000000000000000000000000000000000000602082015250565b7f4552433732313a20617070726f766520746f2063616c6c657200000000000000600082015250565b7f546f6b656e20646f6573206e6f74206578697374000000000000000000000000600082015250565b7f4552433732313a2061646472657373207a65726f206973206e6f74206120766160008201527f6c6964206f776e65720000000000000000000000000000000000000000000000602082015250565b7f4d69736d61746368656420696e70757473000000000000000000000000000000600082015250565b7f4552433732313a206d696e7420746f20746865207a65726f2061646472657373600082015250565b7f4552433732313a20696e76616c696420746f6b656e2049440000000000000000600082015250565b7f4552433732313a20617070726f76616c20746f2063757272656e74206f776e6560008201527f7200000000000000000000000000000000000000000000000000000000000000602082015250565b7f4552433732313a20617070726f76652063616c6c6572206973206e6f7420746f60008201527f6b656e206f776e6572206f7220617070726f76656420666f7220616c6c000000602082015250565b7f416363657373436f6e74726f6c3a206163636f756e7420000000000000000000600082015250565b7f536861726573206d7573742073756d20746f2031303000000000000000000000600082015250565b7f206973206d697373696e6720726f6c6520000000000000000000000000000000600082015250565b7f416363657373436f6e74726f6c3a2063616e206f6e6c792072656e6f756e636560008201527f20726f6c657320666f722073656c660000000000000000000000000000000000602082015250565b61419981613b3c565b81146141a457600080fd5b50565b6141b081613b4e565b81146141bb57600080fd5b50565b6141c781613b5a565b81146141d257600080fd5b50565b6141de81613b64565b81146141e957600080fd5b50565b6141f581613b90565b811461420057600080fd5b50565b61420c81613bbe565b811461421757600080fd5b5056fea2646970667358221220e8b8ef4ab4f4f721d2fa83d0a916f8111ba75e7e222ad99c24e689a35bec52c664736f6c63430008010033",
  "linkReferences": {},
  "deployedLinkReferences": {}
}