{
  "_format": "hh-sol-artifact-1",
  "contractName": "RWA",
  "sourceName": "contracts/RWA.sol",
  "abi": [
    {
      "inputs": [],
      "stateMutability": "nonpayable",
      "type": "constructor"
    },
    {
      "anonymous": false,
      "inputs": [
        {
          "indexed": true,
          "internalType": "address",
          "name": "owner",
          "type": "address"
        },
        {
          "indexed": true,
          "internalType": "address",
          "name": "approved",
          "type": "address"
        },
        {
          "indexed": true,
          "internalType": "uint256",
          "name": "tokenId",
          "type": "uint256"
        }
      ],
      "name": "Approval",
      "type": "event"
    },
    {
      "anonymous": false,
      "inputs": [
        {
          "indexed": true,
          "internalType": "address",
          "name": "owner",
          "type": "address"
        },
        {
          "indexed": true,
          "internalType": "address",
          "name": "operator",
          "type": "address"
        },
        {
          "indexed": false,
          "internalType": "bool",
          "name": "approved",
          "type": "bool"
        }
      ],
      "name": "ApprovalForAll",
      "type": "event"
    },
    {
      "anonymous": false,
      "inputs": [
        {
          "indexed": false,
          "internalType": "uint256",
          "name": "tokenId",
          "type": "uint256"
        },
        {
          "indexed": false,
          "internalType": "address[]",
          "name": "owners",
          "type": "address[]"
        },
        {
          "indexed": false,
          "internalType": "uint16[]",
          "name": "shares",
          "type": "uint16[]"
        }
      ],
      "name": "Fractional_Ownership_Set",
      "type": "event"
    },
    {
      "anonymous": false,
      "inputs": [
        {
          "indexed": false,
          "internalType": "uint256",
          "name": "tokenId",
          "type": "uint256"
        },
        {
          "indexed": false,
          "internalType": "string",
          "name": "newMetadataURI",
          "type": "string"
        },
        {
          "indexed": false,
          "internalType": "bytes32",
          "name": "metadataHash",
          "type": "bytes32"
        }
      ],
      "name": "Metadata_Updated",
      "type": "event"
    },
    {
      "anonymous": false,
      "inputs": [
        {
          "indexed": false,
          "internalType": "uint256",
          "name": "tokenId",
          "type": "uint256"
        },
        {
          "indexed": false,
          "internalType": "address",
          "name": "owner",
          "type": "address"
        },
        {
          "indexed": false,
          "internalType": "string",
          "name": "metadataURI",
          "type": "string"
        }
      ],
      "name": "RWA_Minted",
      "type": "event"
    },
    {
      "anonymous": false,
      "inputs": [
        {
          "indexed": true,
          "internalType": "bytes32",
          "name": "role",
          "type": "bytes32"
        },
        {
          "indexed": true,
          "internalType": "bytes32",
          "name": "previousAdminRole",
          "type": "bytes32"
        },
        {
          "indexed": true,
          "internalType": "bytes32",
          "name": "newAdminRole",
          "type": "bytes32"
        }
      ],
      "name": "RoleAdminChanged",
      "type": "event"
    },
    {
      "anonymous": false,
      "inputs": [
        {
          "indexed": true,
          "internalType": "bytes32",
          "name": "role",
          "type": "bytes32"
        },
        {
          "indexed": true,
          "internalType": "address",
          "name": "account",
          "type": "address"
        },
        {
          "indexed": true,
          "internalType": "address",
          "name": "sender",
          "type": "address"
        }
      ],
      "name": "RoleGranted",
      "type": "event"
    },
    {
      "anonymous": false,
      "inputs": [
        {
          "indexed": true,
          "internalType": "bytes32",
          "name": "role",
          "type": "bytes32"
        },
        {
          "indexed": true,
          "internalType": "address",
          "name": "account",
          "type": "address"
        },
        {
          "indexed": true,
          "internalType": "address",
          "name": "sender",
          "type": "address"
        }
      ],
      "name": "RoleRevoked",
      "type": "event"
    },
    {
      "anonymous": false,
      "inputs": [
        {
          "indexed": true,
          "internalType": "address",
          "name": "from",
          "type": "address"
        },
        {
          "indexed": true,
          "internalType": "address",
          "name": "to",
          "type": "address"
        },
        {
          "indexed": true,
          "internalType": "uint256",
          "name": "tokenId",
          "type": "uint256"
        }
      ],
      "name": "Transfer",
      "type": "event"
    },
    {
      "inputs": [],
      "name": "DEFAULT_ADMIN_ROLE",
      "outputs": [
        {
          "internalType": "bytes32",
          "name": "",
          "type": "bytes32"
        }
      ],
      "stateMutability": "view",
      "type": "function"
    },
    {
      "inputs": [],
      "name": "MINTER_ROLE",
      "outputs": [
        {
          "internalType": "bytes32",
          "name": "",
          "type": "bytes32"
        }
      ],
      "stateMutability": "view",
      "type": "function"
    },
    {
      "inputs": [],
      "name": "UPDATER_ROLE",
      "outputs": [
        {
          "internalType": "bytes32",
          "name": "",
          "type": "bytes32"
        }
      ],
      "stateMutability": "view",
      "type": "function"
    },
    {
      "inputs": [
        {
          "internalType": "address",
          "name": "to",
          "type": "address"
        },
        {
          "internalType": "uint256",
          "name": "tokenId",
          "type": "uint256"
        }
      ],
      "name": "approve",
      "outputs": [],
      "stateMutability": "nonpayable",
      "type": "function"
    },
    {
      "inputs": [
        {
          "internalType": "address",
          "name": "owner",
          "type": "address"
        }
      ],
      "name": "balanceOf",
      "outputs": [
        {
          "internalType": "uint256",
          "name": "",
          "type": "uint256"
        }
      ],
      "stateMutability": "view",
      "type": "function"
    },
    {
      "inputs": [
        {
          "internalType": "uint256",
          "name": "",
          "type": "uint256"
        },
        {
          "internalType": "uint256",
          "name": "",
          "type": "uint256"
        }
      ],
      "name": "fractionalOwners",
      "outputs": [
        {
          "internalType": "address",
          "name": "",
          "type": "address"
        }
      ],
      "stateMutability": "view",
      "type": "function"
    },
    {
      "inputs": [
        {
          "internalType": "uint256",
          "name": "tokenId",
          "type": "uint256"
        }
      ],
      "name": "getApproved",
      "outputs": [
        {
          "internalType": "address",
          "name": "",
          "type": "address"
        }
      ],
      "stateMutability": "view",
      "type": "function"
    },
    {
      "inputs": [
        {
          "internalType": "bytes32",
          "name": "role",
          "type": "bytes32"
        }
      ],
      "name": "getRoleAdmin",
      "outputs": [
        {
          "internalType": "bytes32",
          "name": "",
          "type": "bytes32"
        }
      ],
      "stateMutability": "view",
      "type": "function"
    },
    {
      "inputs": [
        {
          "internalType": "address",
          "name": "account",
          "type": "address"
        }
      ],
      "name": "grantMinterRole",
      "outputs": [],
      "stateMutability": "nonpayable",
      "type": "function"
    },
    {
      "inputs": [
        {
          "internalType": "bytes32",
          "name": "role",
          "type": "bytes32"
        },
        {
          "internalType": "address",
          "name": "account",
          "type": "address"
        }
      ],
      "name": "grantRole",
      "outputs": [],
      "stateMutability": "nonpayable",
      "type": "function"
    },
    {
      "inputs": [
        {
          "internalType": "address",
          "name": "account",
          "type": "address"
        }
      ],
      "name": "grantUpdaterRole",
      "outputs": [],
      "stateMutability": "nonpayable",
      "type": "function"
    },
    {
      "inputs": [
        {
          "internalType": "bytes32",
          "name": "role",
          "type": "bytes32"
        },
        {
          "internalType": "address",
          "name": "account",
          "type": "address"
        }
      ],
      "name": "hasRole",
      "outputs": [
        {
          "internalType": "bool",
          "name": "",
          "type": "bool"
        }
      ],
      "stateMutability": "view",
      "type": "function"
    },
    {
      "inputs": [
        {
          "internalType": "address",
          "name": "owner",
          "type": "address"
        },
        {
          "internalType": "address",
          "name": "operator",
          "type": "address"
        }
      ],
      "name": "isApprovedForAll",
      "outputs": [
        {
          "internalType": "bool",
          "name": "",
          "type": "bool"
        }
      ],
      "stateMutability": "view",
      "type": "function"
    },
    {
      "inputs": [
        {
          "internalType": "uint256",
          "name": "",
          "type": "uint256"
        }
      ],
      "name": "metadataURIs",
      "outputs": [
        {
          "internalType": "string",
          "name": "",
          "type": "string"
        }
      ],
      "stateMutability": "view",
      "type": "function"
    },
    {
      "inputs": [
        {
          "internalType": "address",
          "name": "to",
          "type": "address"
        },
        {
          "internalType": "string",
          "name": "metadataURI",
          "type": "string"
        }
      ],
      "name": "mintRWA",
      "outputs": [],
      "stateMutability": "nonpayable",
      "type": "function"
    },
    {
      "inputs": [],
      "name": "name",
      "outputs": [
        {
          "internalType": "string",
          "name": "",
          "type": "string"
        }
      ],
      "stateMutability": "view",
      "type": "function"
    },
    {
      "inputs": [
        {
          "internalType": "uint256",
          "name": "tokenId",
          "type": "uint256"
        }
      ],
      "name": "ownerOf",
      "outputs": [
        {
          "internalType": "address",
          "name": "",
          "type": "address"
        }
      ],
      "stateMutability": "view",
      "type": "function"
    },
    {
      "inputs": [
        {
          "internalType": "uint256",
          "name": "",
          "type": "uint256"
        },
        {
          "internalType": "address",
          "name": "",
          "type": "address"
        }
      ],
      "name": "ownershipShares",
      "outputs": [
        {
          "internalType": "uint16",
          "name": "",
          "type": "uint16"
        }
      ],
      "stateMutability": "view",
      "type": "function"
    },
    {
      "inputs": [
        {
          "internalType": "bytes32",
          "name": "role",
          "type": "bytes32"
        },
        {
          "internalType": "address",
          "name": "account",
          "type": "address"
        }
      ],
      "name": "renounceRole",
      "outputs": [],
      "stateMutability": "nonpayable",
      "type": "function"
    },
    {
      "inputs": [
        {
          "internalType": "address",
          "name": "account",
          "type": "address"
        }
      ],
      "name": "revokeMinterRole",
      "outputs": [],
      "stateMutability": "nonpayable",
      "type": "function"
    },
    {
      "inputs": [
        {
          "internalType": "bytes32",
          "name": "role",
          "type": "bytes32"
        },
        {
          "internalType": "address",
          "name": "account",
          "type": "address"
        }
      ],
      "name": "revokeRole",
      "outputs": [],
      "stateMutability": "nonpayable",
      "type": "function"
    },
    {
      "inputs": [
        {
          "internalType": "address",
          "name": "account",
          "type": "address"
        }
      ],
      "name": "revokeUpdaterRole",
      "outputs": [],
      "stateMutability": "nonpayable",
      "type": "function"
    },
    {
      "inputs": [
        {
          "internalType": "address",
          "name": "from",
          "type": "address"
        },
        {
          "internalType": "address",
          "name": "to",
          "type": "address"
        },
        {
          "internalType": "uint256",
          "name": "tokenId",
          "type": "uint256"
        }
      ],
      "name": "safeTransferFrom",
      "outputs": [],
      "stateMutability": "nonpayable",
      "type": "function"
    },
    {
      "inputs": [
        {
          "internalType": "address",
          "name": "from",
          "type": "address"
        },
        {
          "internalType": "address",
          "name": "to",
          "type": "address"
        },
        {
          "internalType": "uint256",
          "name": "tokenId",
          "type": "uint256"
        },
        {
          "internalType": "bytes",
          "name": "data",
          "type": "bytes"
        }
      ],
      "name": "safeTransferFrom",
      "outputs": [],
      "stateMutability": "nonpayable",
      "type": "function"
    },
    {
      "inputs": [
        {
          "internalType": "address",
          "name": "operator",
          "type": "address"
        },
        {
          "internalType": "bool",
          "name": "approved",
          "type": "bool"
        }
      ],
      "name": "setApprovalForAll",
      "outputs": [],
      "stateMutability": "nonpayable",
      "type": "function"
    },
    {
      "inputs": [
        {
          "internalType": "uint256",
          "name": "tokenId",
          "type": "uint256"
        },
        {
          "internalType": "address[]",
          "name": "owners",
          "type": "address[]"
        },
        {
          "internalType": "uint16[]",
          "name": "shares",
          "type": "uint16[]"
        }
      ],
      "name": "setFractionalOwnership",
      "outputs": [],
      "stateMutability": "nonpayable",
      "type": "function"
    },
    {
      "inputs": [
        {
          "internalType": "bytes4",
          "name": "interfaceId",
          "type": "bytes4"
        }
      ],
      "name": "supportsInterface",
      "outputs": [
        {
          "internalType": "bool",
          "name": "",
          "type": "bool"
        }
      ],
      "stateMutability": "view",
      "type": "function"
    },
    {
      "inputs": [],
      "name": "symbol",
      "outputs": [
        {
          "internalType": "string",
          "name": "",
          "type": "string"
        }
      ],
      "stateMutability": "view",
      "type": "function"
    },
    {
      "inputs": [],
      "name": "tokenIdCounter",
      "outputs": [
        {
          "internalType": "uint256",
          "name": "",
          "type": "uint256"
        }
      ],
      "stateMutability": "view",
      "type": "function"
    },
    {
      "inputs": [
        {
          "internalType": "uint256",
          "name": "tokenId",
          "type": "uint256"
        }
      ],
      "name": "tokenURI",
      "outputs": [
        {
          "internalType": "string",
          "name": "",
          "type": "string"
        }
      ],
      "stateMutability": "view",
      "type": "function"
    },
    {
      "inputs": [
        {
          "internalType": "address",
          "name": "from",
          "type": "address"
        },
        {
          "internalType": "address",
          "name": "to",
          "type": "address"
        },
        {
          "internalType": "uint256",
          "name": "tokenId",
          "type": "uint256"
        }
      ],
      "name": "transferFrom",
      "outputs": [],
      "stateMutability": "nonpayable",
      "type": "function"
    },
    {
      "inputs": [
        {
          "internalType": "uint256",
          "name": "tokenId",
          "type": "uint256"
        },
        {
          "internalType": "string",
          "name": "metadataURI",
          "type": "string"
        },
        {
          "internalType": "bytes32",
          "name": "metadataHash",
          "type": "bytes32"
        }
      ],
      "name": "updateMetadata",
      "outputs": [],
      "stateMutability": "nonpayable",
      "type": "function"
    }
  ],
  "bytecode": "0x60806040523480156200001157600080fd5b506040518060400160405280600e81526020017f5265616c576f726c6441737365740000000000000000000000000000000000008152506040518060400160405280600381526020017f5257410000000000000000000000000000000000000000000000000000000000815250816000908051906020019062000096929190620002ac565b508060019080519060200190620000af929190620002ac565b505050620000c76000801b336200013160201b60201c565b620000f97f9f2df0fed2c77648de5860a4cc508cd0818c85b8b8a1ab4ceeef8d981c8956a6336200013160201b60201c565b6200012b7f73e573f9566d61418a34d5de3ff49360f9c51fec37f7486551670290f6285dab336200013160201b60201c565b620003c1565b6200014382826200014760201b60201c565b5050565b6200015982826200023960201b60201c565b620002355760016006600084815260200190815260200160002060000160008373ffffffffffffffffffffffffffffffffffffffff1673ffffffffffffffffffffffffffffffffffffffff16815260200190815260200160002060006101000a81548160ff021916908315150217905550620001da620002a460201b60201c565b73ffffffffffffffffffffffffffffffffffffffff168173ffffffffffffffffffffffffffffffffffffffff16837f2f8788117e7eff1d82e926ec794901d17c78024a50270940304540a733656f0d60405160405180910390a45b5050565b60006006600084815260200190815260200160002060000160008373ffffffffffffffffffffffffffffffffffffffff1673ffffffffffffffffffffffffffffffffffffffff16815260200190815260200160002060009054906101000a900460ff16905092915050565b600033905090565b828054620002ba906200035c565b90600052602060002090601f016020900481019282620002de57600085556200032a565b82601f10620002f957805160ff19168380011785556200032a565b828001600101855582156200032a579182015b82811115620003295782518255916020019190600101906200030c565b5b5090506200033991906200033d565b5090565b5b80821115620003585760008160009055506001016200033e565b5090565b600060028204905060018216806200037557607f821691505b602082108114156200038c576200038b62000392565b5b50919050565b7f4e487b7100000000000000000000000000000000000000000000000000000000600052602260045260246000fd5b6143d880620003d16000396000f3fe608060405234801561001057600080fd5b50600436106101f05760003560e01c806370a082311161010f578063b68cb684116100a2578063d539139311610071578063d5391393146105d7578063d547741f146105f5578063e0fe4ba514610611578063e985e9c51461062d576101f0565b8063b68cb6841461052b578063b88d4fde1461055b578063c81a443214610577578063c87b56dd146105a7576101f0565b8063a217fddf116100de578063a217fddf146104b9578063a22cb465146104d7578063a649fb90146104f3578063ad4e0c281461050f576101f0565b806370a082311461041d57806391d148541461044d57806395d89b411461047d57806398bdf6f51461049b576101f0565b80633dd1eb61116101875780634ed5c558116101565780634ed5c5581461038557806350882f6d146103b55780636352211e146103d157806369e2f0fb14610401576101f0565b80633dd1eb61146103135780633eeb46dc1461032f57806342842e0e1461034b57806347e6338014610367576101f0565b806323b872dd116101c357806323b872dd1461028f578063248a9ca3146102ab5780632f2ff15d146102db57806336568abe146102f7576101f0565b806301ffc9a7146101f557806306fdde0314610225578063081812fc14610243578063095ea7b314610273575b600080fd5b61020f600480360381019061020a9190613025565b61065d565b60405161021c9190613731565b60405180910390f35b61022d61067f565b60405161023a9190613767565b60405180910390f35b61025d60048036038101906102589190613077565b610711565b60405161026a91906136ca565b60405180910390f35b61028d60048036038101906102889190612f84565b610757565b005b6102a960048036038101906102a49190612e2a565b61086f565b005b6102c560048036038101906102c09190612fc0565b6108cf565b6040516102d2919061374c565b60405180910390f35b6102f560048036038101906102f09190612fe9565b6108ef565b005b610311600480360381019061030c9190612fe9565b610910565b005b61032d60048036038101906103289190612dc5565b610993565b005b6103496004803603810190610344919061315b565b6109ce565b005b61036560048036038101906103609190612e2a565b610aa9565b005b61036f610ac9565b60405161037c919061374c565b60405180910390f35b61039f600480360381019061039a9190613077565b610aed565b6040516103ac9190613767565b60405180910390f35b6103cf60048036038101906103ca9190612dc5565b610b8d565b005b6103eb60048036038101906103e69190613077565b610bc8565b6040516103f891906136ca565b60405180910390f35b61041b60048036038101906104169190612dc5565b610c4f565b005b61043760048036038101906104329190612dc5565b610c8a565b60405161044491906139a4565b60405180910390f35b61046760048036038101906104629190612fe9565b610d42565b6040516104749190613731565b60405180910390f35b610485610dad565b6040516104929190613767565b60405180910390f35b6104a3610e3f565b6040516104b091906139a4565b60405180910390f35b6104c1610e45565b6040516104ce919061374c565b60405180910390f35b6104f160048036038101906104ec9190612ef4565b610e4c565b005b61050d60048036038101906105089190612f30565b610e62565b005b61052960048036038101906105249190612dc5565b610f1a565b005b610545600480360381019061054091906131c2565b610f55565b60405161055291906136ca565b60405180910390f35b61057560048036038101906105709190612e79565b610fa3565b005b610591600480360381019061058c91906130a0565b611005565b60405161059e9190613989565b60405180910390f35b6105c160048036038101906105bc9190613077565b611035565b6040516105ce9190613767565b60405180910390f35b6105df61109d565b6040516105ec919061374c565b60405180910390f35b61060f600480360381019061060a9190612fe9565b6110c1565b005b61062b600480360381019061062691906130dc565b6110e2565b005b61064760048036038101906106429190612dee565b61137b565b6040516106549190613731565b60405180910390f35b60006106688261140f565b806106785750610677826114f1565b5b9050919050565b60606000805461068e90613dbc565b80601f01602080910402602001604051908101604052809291908181526020018280546106ba90613dbc565b80156107075780601f106106dc57610100808354040283529160200191610707565b820191906000526020600020905b8154815290600101906020018083116106ea57829003601f168201915b5050505050905090565b600061071c8261156b565b6004600083815260200190815260200160002060009054906101000a900473ffffffffffffffffffffffffffffffffffffffff169050919050565b600061076282610bc8565b90508073ffffffffffffffffffffffffffffffffffffffff168373ffffffffffffffffffffffffffffffffffffffff1614156107d3576040517f08c379a00000000000000000000000000000000000000000000000000000000081526004016107ca90613909565b60405180910390fd5b8073ffffffffffffffffffffffffffffffffffffffff166107f26115b6565b73ffffffffffffffffffffffffffffffffffffffff16148061082157506108208161081b6115b6565b61137b565b5b610860576040517f08c379a000000000000000000000000000000000000000000000000000000000815260040161085790613929565b60405180910390fd5b61086a83836115be565b505050565b61088061087a6115b6565b82611677565b6108bf576040517f08c379a00000000000000000000000000000000000000000000000000000000081526004016108b6906137a9565b60405180910390fd5b6108ca83838361170c565b505050565b600060066000838152602001908152602001600020600101549050919050565b6108f8826108cf565b61090181611a06565b61090b8383611a1a565b505050565b6109186115b6565b73ffffffffffffffffffffffffffffffffffffffff168173ffffffffffffffffffffffffffffffffffffffff1614610985576040517f08c379a000000000000000000000000000000000000000000000000000000000815260040161097c90613969565b60405180910390fd5b61098f8282611afb565b5050565b6000801b6109a081611a06565b6109ca7f9f2df0fed2c77648de5860a4cc508cd0818c85b8b8a1ab4ceeef8d981c8956a6836108ef565b5050565b7f73e573f9566d61418a34d5de3ff49360f9c51fec37f7486551670290f6285dab6109f881611a06565b610a0184611bdd565b610a40576040517f08c379a0000000000000000000000000000000000000000000000000000000008152600401610a3790613869565b60405180910390fd5b82600860008681526020019081526020016000209080519060200190610a67929190612a09565b507f624065b7e6eac87d46f6c3ec8476a1ad0ebb9c051b5eb5f36fa90779ad9250c0848484604051610a9b93929190613a42565b60405180910390a150505050565b610ac483838360405180602001604052806000815250610fa3565b505050565b7f73e573f9566d61418a34d5de3ff49360f9c51fec37f7486551670290f6285dab81565b60086020528060005260406000206000915090508054610b0c90613dbc565b80601f0160208091040260200160405190810160405280929190818152602001828054610b3890613dbc565b8015610b855780601f10610b5a57610100808354040283529160200191610b85565b820191906000526020600020905b815481529060010190602001808311610b6857829003601f168201915b505050505081565b6000801b610b9a81611a06565b610bc47f73e573f9566d61418a34d5de3ff49360f9c51fec37f7486551670290f6285dab836108ef565b5050565b600080610bd483611c1e565b9050600073ffffffffffffffffffffffffffffffffffffffff168173ffffffffffffffffffffffffffffffffffffffff161415610c46576040517f08c379a0000000000000000000000000000000000000000000000000000000008152600401610c3d906138e9565b60405180910390fd5b80915050919050565b6000801b610c5c81611a06565b610c867f9f2df0fed2c77648de5860a4cc508cd0818c85b8b8a1ab4ceeef8d981c8956a6836110c1565b5050565b60008073ffffffffffffffffffffffffffffffffffffffff168273ffffffffffffffffffffffffffffffffffffffff161415610cfb576040517f08c379a0000000000000000000000000000000000000000000000000000000008152600401610cf290613889565b60405180910390fd5b600360008373ffffffffffffffffffffffffffffffffffffffff1673ffffffffffffffffffffffffffffffffffffffff168152602001908152602001600020549050919050565b60006006600084815260200190815260200160002060000160008373ffffffffffffffffffffffffffffffffffffffff1673ffffffffffffffffffffffffffffffffffffffff16815260200190815260200160002060009054906101000a900460ff16905092915050565b606060018054610dbc90613dbc565b80601f0160208091040260200160405190810160405280929190818152602001828054610de890613dbc565b8015610e355780601f10610e0a57610100808354040283529160200191610e35565b820191906000526020600020905b815481529060010190602001808311610e1857829003601f168201915b5050505050905090565b60075481565b6000801b81565b610e5e610e576115b6565b8383611c5b565b5050565b7f9f2df0fed2c77648de5860a4cc508cd0818c85b8b8a1ab4ceeef8d981c8956a6610e8c81611a06565b600060076000815480929190610ea190613e1f565b919050559050610eb18482611dc8565b82600860008381526020019081526020016000209080519060200190610ed8929190612a09565b507fe691cc6565f19b3b03efd7f12122ca643e33298bdd597e728774455bff70f692818585604051610f0c939291906139bf565b60405180910390a150505050565b6000801b610f2781611a06565b610f517f73e573f9566d61418a34d5de3ff49360f9c51fec37f7486551670290f6285dab836110c1565b5050565b60096020528160005260406000208181548110610f7157600080fd5b906000526020600020016000915091509054906101000a900473ffffffffffffffffffffffffffffffffffffffff1681565b610fb4610fae6115b6565b83611677565b610ff3576040517f08c379a0000000000000000000000000000000000000000000000000000000008152600401610fea906137a9565b60405180910390fd5b610fff84848484611de6565b50505050565b600a6020528160005260406000206020528060005260406000206000915091509054906101000a900461ffff1681565b60606110408261156b565b600061104a611e42565b9050600081511161106a5760405180602001604052806000815250611095565b8061107484611e59565b60405160200161108592919061366c565b6040516020818303038152906040525b915050919050565b7f9f2df0fed2c77648de5860a4cc508cd0818c85b8b8a1ab4ceeef8d981c8956a681565b6110ca826108cf565b6110d381611a06565b6110dd8383611afb565b505050565b7f9f2df0fed2c77648de5860a4cc508cd0818c85b8b8a1ab4ceeef8d981c8956a661110c81611a06565b8151835114611150576040517f08c379a0000000000000000000000000000000000000000000000000000000008152600401611147906138a9565b60405180910390fd5b6000805b83518110156111c257838181518110611196577f4e487b7100000000000000000000000000000000000000000000000000000000600052603260045260246000fd5b602002602001015161ffff16826111ad9190613c14565b915080806111ba90613e1f565b915050611154565b5060648114611206576040517f08c379a00000000000000000000000000000000000000000000000000000000081526004016111fd90613949565b60405180910390fd5b8360096000878152602001908152602001600020908051906020019061122d929190612a8f565b5060005b845181101561133857838181518110611273577f4e487b7100000000000000000000000000000000000000000000000000000000600052603260045260246000fd5b6020026020010151600a600088815260200190815260200160002060008784815181106112c9577f4e487b7100000000000000000000000000000000000000000000000000000000600052603260045260246000fd5b602002602001015173ffffffffffffffffffffffffffffffffffffffff1673ffffffffffffffffffffffffffffffffffffffff16815260200190815260200160002060006101000a81548161ffff021916908361ffff160217905550808061133090613e1f565b915050611231565b507f80610c8214fd3d4dd3e349c4635054787d418d2ec47ad9b840da16c45a21ab8285858560405161136c939291906139fd565b60405180910390a15050505050565b6000600560008473ffffffffffffffffffffffffffffffffffffffff1673ffffffffffffffffffffffffffffffffffffffff16815260200190815260200160002060008373ffffffffffffffffffffffffffffffffffffffff1673ffffffffffffffffffffffffffffffffffffffff16815260200190815260200160002060009054906101000a900460ff16905092915050565b60007f80ac58cd000000000000000000000000000000000000000000000000000000007bffffffffffffffffffffffffffffffffffffffffffffffffffffffff1916827bffffffffffffffffffffffffffffffffffffffffffffffffffffffff191614806114da57507f5b5e139f000000000000000000000000000000000000000000000000000000007bffffffffffffffffffffffffffffffffffffffffffffffffffffffff1916827bffffffffffffffffffffffffffffffffffffffffffffffffffffffff1916145b806114ea57506114e982611f7d565b5b9050919050565b60007f7965db0b000000000000000000000000000000000000000000000000000000007bffffffffffffffffffffffffffffffffffffffffffffffffffffffff1916827bffffffffffffffffffffffffffffffffffffffffffffffffffffffff1916148061156457506115638261140f565b5b9050919050565b61157481611bdd565b6115b3576040517f08c379a00000000000000000000000000000000000000000000000000000000081526004016115aa906138e9565b60405180910390fd5b50565b600033905090565b816004600083815260200190815260200160002060006101000a81548173ffffffffffffffffffffffffffffffffffffffff021916908373ffffffffffffffffffffffffffffffffffffffff160217905550808273ffffffffffffffffffffffffffffffffffffffff1661163183610bc8565b73ffffffffffffffffffffffffffffffffffffffff167f8c5be1e5ebec7d5bd14f71427d1e84f3dd0314c0f7b2291e5b200ac8c7c3b92560405160405180910390a45050565b60008061168383610bc8565b90508073ffffffffffffffffffffffffffffffffffffffff168473ffffffffffffffffffffffffffffffffffffffff1614806116c557506116c4818561137b565b5b8061170357508373ffffffffffffffffffffffffffffffffffffffff166116eb84610711565b73ffffffffffffffffffffffffffffffffffffffff16145b91505092915050565b8273ffffffffffffffffffffffffffffffffffffffff1661172c82610bc8565b73ffffffffffffffffffffffffffffffffffffffff1614611782576040517f08c379a0000000000000000000000000000000000000000000000000000000008152600401611779906137e9565b60405180910390fd5b600073ffffffffffffffffffffffffffffffffffffffff168273ffffffffffffffffffffffffffffffffffffffff1614156117f2576040517f08c379a00000000000000000000000000000000000000000000000000000000081526004016117e990613829565b60405180910390fd5b6117ff8383836001611fe7565b8273ffffffffffffffffffffffffffffffffffffffff1661181f82610bc8565b73ffffffffffffffffffffffffffffffffffffffff1614611875576040517f08c379a000000000000000000000000000000000000000000000000000000000815260040161186c906137e9565b60405180910390fd5b6004600082815260200190815260200160002060006101000a81549073ffffffffffffffffffffffffffffffffffffffff02191690556001600360008573ffffffffffffffffffffffffffffffffffffffff1673ffffffffffffffffffffffffffffffffffffffff168152602001908152602001600020600082825403925050819055506001600360008473ffffffffffffffffffffffffffffffffffffffff1673ffffffffffffffffffffffffffffffffffffffff16815260200190815260200160002060008282540192505081905550816002600083815260200190815260200160002060006101000a81548173ffffffffffffffffffffffffffffffffffffffff021916908373ffffffffffffffffffffffffffffffffffffffff160217905550808273ffffffffffffffffffffffffffffffffffffffff168473ffffffffffffffffffffffffffffffffffffffff167fddf252ad1be2c89b69c2b068fc378daa952ba7f163c4a11628f55a4df523b3ef60405160405180910390a4611a018383836001611fed565b505050565b611a1781611a126115b6565b611ff3565b50565b611a248282610d42565b611af75760016006600084815260200190815260200160002060000160008373ffffffffffffffffffffffffffffffffffffffff1673ffffffffffffffffffffffffffffffffffffffff16815260200190815260200160002060006101000a81548160ff021916908315150217905550611a9c6115b6565b73ffffffffffffffffffffffffffffffffffffffff168173ffffffffffffffffffffffffffffffffffffffff16837f2f8788117e7eff1d82e926ec794901d17c78024a50270940304540a733656f0d60405160405180910390a45b5050565b611b058282610d42565b15611bd95760006006600084815260200190815260200160002060000160008373ffffffffffffffffffffffffffffffffffffffff1673ffffffffffffffffffffffffffffffffffffffff16815260200190815260200160002060006101000a81548160ff021916908315150217905550611b7e6115b6565b73ffffffffffffffffffffffffffffffffffffffff168173ffffffffffffffffffffffffffffffffffffffff16837ff6391f5c32d9c69d2a47ea670b442974b53935d1edc7fd64eb21e047a839171b60405160405180910390a45b5050565b60008073ffffffffffffffffffffffffffffffffffffffff16611bff83611c1e565b73ffffffffffffffffffffffffffffffffffffffff1614159050919050565b60006002600083815260200190815260200160002060009054906101000a900473ffffffffffffffffffffffffffffffffffffffff169050919050565b8173ffffffffffffffffffffffffffffffffffffffff168373ffffffffffffffffffffffffffffffffffffffff161415611cca576040517f08c379a0000000000000000000000000000000000000000000000000000000008152600401611cc190613849565b60405180910390fd5b80600560008573ffffffffffffffffffffffffffffffffffffffff1673ffffffffffffffffffffffffffffffffffffffff16815260200190815260200160002060008473ffffffffffffffffffffffffffffffffffffffff1673ffffffffffffffffffffffffffffffffffffffff16815260200190815260200160002060006101000a81548160ff0219169083151502179055508173ffffffffffffffffffffffffffffffffffffffff168373ffffffffffffffffffffffffffffffffffffffff167f17307eab39ab6107e8899845ad3d59bd9653f200f220920489ca2b5937696c3183604051611dbb9190613731565b60405180910390a3505050565b611de2828260405180602001604052806000815250612078565b5050565b611df184848461170c565b611dfd848484846120d3565b611e3c576040517f08c379a0000000000000000000000000000000000000000000000000000000008152600401611e33906137c9565b60405180910390fd5b50505050565b606060405180602001604052806000815250905090565b606060006001611e688461226a565b01905060008167ffffffffffffffff811115611ead577f4e487b7100000000000000000000000000000000000000000000000000000000600052604160045260246000fd5b6040519080825280601f01601f191660200182016040528015611edf5781602001600182028036833780820191505090505b509050600082602001820190505b600115611f72578080600190039150507f3031323334353637383961626364656600000000000000000000000000000000600a86061a8153600a8581611f5c577f4e487b7100000000000000000000000000000000000000000000000000000000600052601260045260246000fd5b0494506000851415611f6d57611f72565b611eed565b819350505050919050565b60007f01ffc9a7000000000000000000000000000000000000000000000000000000007bffffffffffffffffffffffffffffffffffffffffffffffffffffffff1916827bffffffffffffffffffffffffffffffffffffffffffffffffffffffff1916149050919050565b50505050565b50505050565b611ffd8282610d42565b6120745761200a816124a1565b6120188360001c60206124ce565b604051602001612029929190613690565b6040516020818303038152906040526040517f08c379a000000000000000000000000000000000000000000000000000000000815260040161206b9190613767565b60405180910390fd5b5050565b61208283836127c8565b61208f60008484846120d3565b6120ce576040517f08c379a00000000000000000000000000000000000000000000000000000000081526004016120c5906137c9565b60405180910390fd5b505050565b60006120f48473ffffffffffffffffffffffffffffffffffffffff166129e6565b1561225d578373ffffffffffffffffffffffffffffffffffffffff1663150b7a0261211d6115b6565b8786866040518563ffffffff1660e01b815260040161213f94939291906136e5565b602060405180830381600087803b15801561215957600080fd5b505af192505050801561218a57506040513d601f19601f82011682018060405250810190612187919061304e565b60015b61220d573d80600081146121ba576040519150601f19603f3d011682016040523d82523d6000602084013e6121bf565b606091505b50600081511415612205576040517f08c379a00000000000000000000000000000000000000000000000000000000081526004016121fc906137c9565b60405180910390fd5b805181602001fd5b63150b7a0260e01b7bffffffffffffffffffffffffffffffffffffffffffffffffffffffff1916817bffffffffffffffffffffffffffffffffffffffffffffffffffffffff191614915050612262565b600190505b949350505050565b600080600090507a184f03e93ff9f4daa797ed6e38ed64bf6a1f01000000000000000083106122ee577a184f03e93ff9f4daa797ed6e38ed64bf6a1f01000000000000000083816122e4577f4e487b7100000000000000000000000000000000000000000000000000000000600052601260045260246000fd5b0492506040810190505b6d04ee2d6d415b85acef81000000008310612351576d04ee2d6d415b85acef81000000008381612347577f4e487b7100000000000000000000000000000000000000000000000000000000600052601260045260246000fd5b0492506020810190505b662386f26fc1000083106123a657662386f26fc10000838161239c577f4e487b7100000000000000000000000000000000000000000000000000000000600052601260045260246000fd5b0492506010810190505b6305f5e10083106123f5576305f5e10083816123eb577f4e487b7100000000000000000000000000000000000000000000000000000000600052601260045260246000fd5b0492506008810190505b6127108310612440576127108381612436577f4e487b7100000000000000000000000000000000000000000000000000000000600052601260045260246000fd5b0492506004810190505b60648310612489576064838161247f577f4e487b7100000000000000000000000000000000000000000000000000000000600052601260045260246000fd5b0492506002810190505b600a8310612498576001810190505b80915050919050565b60606124c78273ffffffffffffffffffffffffffffffffffffffff16601460ff166124ce565b9050919050565b6060600060028360026124e19190613c6a565b6124eb9190613c14565b67ffffffffffffffff81111561252a577f4e487b7100000000000000000000000000000000000000000000000000000000600052604160045260246000fd5b6040519080825280601f01601f19166020018201604052801561255c5781602001600182028036833780820191505090505b5090507f3000000000000000000000000000000000000000000000000000000000000000816000815181106125ba577f4e487b7100000000000000000000000000000000000000000000000000000000600052603260045260246000fd5b60200101907effffffffffffffffffffffffffffffffffffffffffffffffffffffffffffff1916908160001a9053507f780000000000000000000000000000000000000000000000000000000000000081600181518110612644577f4e487b7100000000000000000000000000000000000000000000000000000000600052603260045260246000fd5b60200101907effffffffffffffffffffffffffffffffffffffffffffffffffffffffffffff1916908160001a905350600060018460026126849190613c6a565b61268e9190613c14565b90505b600181111561277a577f3031323334353637383961626364656600000000000000000000000000000000600f8616601081106126f6577f4e487b7100000000000000000000000000000000000000000000000000000000600052603260045260246000fd5b1a60f81b828281518110612733577f4e487b7100000000000000000000000000000000000000000000000000000000600052603260045260246000fd5b60200101907effffffffffffffffffffffffffffffffffffffffffffffffffffffffffffff1916908160001a905350600485901c94508061277390613d92565b9050612691565b50600084146127be576040517f08c379a00000000000000000000000000000000000000000000000000000000081526004016127b590613789565b60405180910390fd5b8091505092915050565b600073ffffffffffffffffffffffffffffffffffffffff168273ffffffffffffffffffffffffffffffffffffffff161415612838576040517f08c379a000000000000000000000000000000000000000000000000000000000815260040161282f906138c9565b60405180910390fd5b61284181611bdd565b15612881576040517f08c379a000000000000000000000000000000000000000000000000000000000815260040161287890613809565b60405180910390fd5b61288f600083836001611fe7565b61289881611bdd565b156128d8576040517f08c379a00000000000000000000000000000000000000000000000000000000081526004016128cf90613809565b60405180910390fd5b6001600360008473ffffffffffffffffffffffffffffffffffffffff1673ffffffffffffffffffffffffffffffffffffffff16815260200190815260200160002060008282540192505081905550816002600083815260200190815260200160002060006101000a81548173ffffffffffffffffffffffffffffffffffffffff021916908373ffffffffffffffffffffffffffffffffffffffff160217905550808273ffffffffffffffffffffffffffffffffffffffff16600073ffffffffffffffffffffffffffffffffffffffff167fddf252ad1be2c89b69c2b068fc378daa952ba7f163c4a11628f55a4df523b3ef60405160405180910390a46129e2600083836001611fed565b5050565b6000808273ffffffffffffffffffffffffffffffffffffffff163b119050919050565b828054612a1590613dbc565b90600052602060002090601f016020900481019282612a375760008555612a7e565b82601f10612a5057805160ff1916838001178555612a7e565b82800160010185558215612a7e579182015b82811115612a7d578251825591602001919060010190612a62565b5b509050612a8b9190612b19565b5090565b828054828255906000526020600020908101928215612b08579160200282015b82811115612b075782518260006101000a81548173ffffffffffffffffffffffffffffffffffffffff021916908373ffffffffffffffffffffffffffffffffffffffff16021790555091602001919060010190612aaf565b5b509050612b159190612b19565b5090565b5b80821115612b32576000816000905550600101612b1a565b5090565b6000612b49612b4484613aa5565b613a80565b90508083825260208201905082856020860282011115612b6857600080fd5b60005b85811015612b985781612b7e8882612c8a565b845260208401935060208301925050600181019050612b6b565b5050509392505050565b6000612bb5612bb084613ad1565b613a80565b90508083825260208201905082856020860282011115612bd457600080fd5b60005b85811015612c045781612bea8882612d9b565b845260208401935060208301925050600181019050612bd7565b5050509392505050565b6000612c21612c1c84613afd565b613a80565b905082815260208101848484011115612c3957600080fd5b612c44848285613d50565b509392505050565b6000612c5f612c5a84613b2e565b613a80565b905082815260208101848484011115612c7757600080fd5b612c82848285613d50565b509392505050565b600081359050612c9981614318565b92915050565b600082601f830112612cb057600080fd5b8135612cc0848260208601612b36565b91505092915050565b600082601f830112612cda57600080fd5b8135612cea848260208601612ba2565b91505092915050565b600081359050612d028161432f565b92915050565b600081359050612d1781614346565b92915050565b600081359050612d2c8161435d565b92915050565b600081519050612d418161435d565b92915050565b600082601f830112612d5857600080fd5b8135612d68848260208601612c0e565b91505092915050565b600082601f830112612d8257600080fd5b8135612d92848260208601612c4c565b91505092915050565b600081359050612daa81614374565b92915050565b600081359050612dbf8161438b565b92915050565b600060208284031215612dd757600080fd5b6000612de584828501612c8a565b91505092915050565b60008060408385031215612e0157600080fd5b6000612e0f85828601612c8a565b9250506020612e2085828601612c8a565b9150509250929050565b600080600060608486031215612e3f57600080fd5b6000612e4d86828701612c8a565b9350506020612e5e86828701612c8a565b9250506040612e6f86828701612db0565b9150509250925092565b60008060008060808587031215612e8f57600080fd5b6000612e9d87828801612c8a565b9450506020612eae87828801612c8a565b9350506040612ebf87828801612db0565b925050606085013567ffffffffffffffff811115612edc57600080fd5b612ee887828801612d47565b91505092959194509250565b60008060408385031215612f0757600080fd5b6000612f1585828601612c8a565b9250506020612f2685828601612cf3565b9150509250929050565b60008060408385031215612f4357600080fd5b6000612f5185828601612c8a565b925050602083013567ffffffffffffffff811115612f6e57600080fd5b612f7a85828601612d71565b9150509250929050565b60008060408385031215612f9757600080fd5b6000612fa585828601612c8a565b9250506020612fb685828601612db0565b9150509250929050565b600060208284031215612fd257600080fd5b6000612fe084828501612d08565b91505092915050565b60008060408385031215612ffc57600080fd5b600061300a85828601612d08565b925050602061301b85828601612c8a565b9150509250929050565b60006020828403121561303757600080fd5b600061304584828501612d1d565b91505092915050565b60006020828403121561306057600080fd5b600061306e84828501612d32565b91505092915050565b60006020828403121561308957600080fd5b600061309784828501612db0565b91505092915050565b600080604083850312156130b357600080fd5b60006130c185828601612db0565b92505060206130d285828601612c8a565b9150509250929050565b6000806000606084860312156130f157600080fd5b60006130ff86828701612db0565b935050602084013567ffffffffffffffff81111561311c57600080fd5b61312886828701612c9f565b925050604084013567ffffffffffffffff81111561314557600080fd5b61315186828701612cc9565b9150509250925092565b60008060006060848603121561317057600080fd5b600061317e86828701612db0565b935050602084013567ffffffffffffffff81111561319b57600080fd5b6131a786828701612d71565b92505060406131b886828701612d08565b9150509250925092565b600080604083850312156131d557600080fd5b60006131e385828601612db0565b92505060206131f485828601612db0565b9150509250929050565b600061320a838361322e565b60208301905092915050565b6000613222838361363f565b60208301905092915050565b61323781613cc4565b82525050565b61324681613cc4565b82525050565b600061325782613b7f565b6132618185613bc5565b935061326c83613b5f565b8060005b8381101561329d57815161328488826131fe565b975061328f83613bab565b925050600181019050613270565b5085935050505092915050565b60006132b582613b8a565b6132bf8185613bd6565b93506132ca83613b6f565b8060005b838110156132fb5781516132e28882613216565b97506132ed83613bb8565b9250506001810190506132ce565b5085935050505092915050565b61331181613cd6565b82525050565b61332081613ce2565b82525050565b600061333182613b95565b61333b8185613be7565b935061334b818560208601613d5f565b61335481613ef5565b840191505092915050565b600061336a82613ba0565b6133748185613bf8565b9350613384818560208601613d5f565b61338d81613ef5565b840191505092915050565b60006133a382613ba0565b6133ad8185613c09565b93506133bd818560208601613d5f565b80840191505092915050565b60006133d6602083613bf8565b91506133e182613f06565b602082019050919050565b60006133f9602d83613bf8565b915061340482613f2f565b604082019050919050565b600061341c603283613bf8565b915061342782613f7e565b604082019050919050565b600061343f602583613bf8565b915061344a82613fcd565b604082019050919050565b6000613462601c83613bf8565b915061346d8261401c565b602082019050919050565b6000613485602483613bf8565b915061349082614045565b604082019050919050565b60006134a8601983613bf8565b91506134b382614094565b602082019050919050565b60006134cb601483613bf8565b91506134d6826140bd565b602082019050919050565b60006134ee602983613bf8565b91506134f9826140e6565b604082019050919050565b6000613511601183613bf8565b915061351c82614135565b602082019050919050565b6000613534602083613bf8565b915061353f8261415e565b602082019050919050565b6000613557601883613bf8565b915061356282614187565b602082019050919050565b600061357a602183613bf8565b9150613585826141b0565b604082019050919050565b600061359d603d83613bf8565b91506135a8826141ff565b604082019050919050565b60006135c0601783613c09565b91506135cb8261424e565b601782019050919050565b60006135e3601683613bf8565b91506135ee82614277565b602082019050919050565b6000613606601183613c09565b9150613611826142a0565b601182019050919050565b6000613629602f83613bf8565b9150613634826142c9565b604082019050919050565b61364881613d18565b82525050565b61365781613d18565b82525050565b61366681613d46565b82525050565b60006136788285613398565b91506136848284613398565b91508190509392505050565b600061369b826135b3565b91506136a78285613398565b91506136b2826135f9565b91506136be8284613398565b91508190509392505050565b60006020820190506136df600083018461323d565b92915050565b60006080820190506136fa600083018761323d565b613707602083018661323d565b613714604083018561365d565b81810360608301526137268184613326565b905095945050505050565b60006020820190506137466000830184613308565b92915050565b60006020820190506137616000830184613317565b92915050565b60006020820190508181036000830152613781818461335f565b905092915050565b600060208201905081810360008301526137a2816133c9565b9050919050565b600060208201905081810360008301526137c2816133ec565b9050919050565b600060208201905081810360008301526137e28161340f565b9050919050565b6000602082019050818103600083015261380281613432565b9050919050565b6000602082019050818103600083015261382281613455565b9050919050565b6000602082019050818103600083015261384281613478565b9050919050565b600060208201905081810360008301526138628161349b565b9050919050565b60006020820190508181036000830152613882816134be565b9050919050565b600060208201905081810360008301526138a2816134e1565b9050919050565b600060208201905081810360008301526138c281613504565b9050919050565b600060208201905081810360008301526138e281613527565b9050919050565b600060208201905081810360008301526139028161354a565b9050919050565b600060208201905081810360008301526139228161356d565b9050919050565b6000602082019050818103600083015261394281613590565b9050919050565b60006020820190508181036000830152613962816135d6565b9050919050565b600060208201905081810360008301526139828161361c565b9050919050565b600060208201905061399e600083018461364e565b92915050565b60006020820190506139b9600083018461365d565b92915050565b60006060820190506139d4600083018661365d565b6139e1602083018561323d565b81810360408301526139f3818461335f565b9050949350505050565b6000606082019050613a12600083018661365d565b8181036020830152613a24818561324c565b90508181036040830152613a3881846132aa565b9050949350505050565b6000606082019050613a57600083018661365d565b8181036020830152613a69818561335f565b9050613a786040830184613317565b949350505050565b6000613a8a613a9b565b9050613a968282613dee565b919050565b6000604051905090565b600067ffffffffffffffff821115613ac057613abf613ec6565b5b602082029050602081019050919050565b600067ffffffffffffffff821115613aec57613aeb613ec6565b5b602082029050602081019050919050565b600067ffffffffffffffff821115613b1857613b17613ec6565b5b613b2182613ef5565b9050602081019050919050565b600067ffffffffffffffff821115613b4957613b48613ec6565b5b613b5282613ef5565b9050602081019050919050565b6000819050602082019050919050565b6000819050602082019050919050565b600081519050919050565b600081519050919050565b600081519050919050565b600081519050919050565b6000602082019050919050565b6000602082019050919050565b600082825260208201905092915050565b600082825260208201905092915050565b600082825260208201905092915050565b600082825260208201905092915050565b600081905092915050565b6000613c1f82613d46565b9150613c2a83613d46565b9250827fffffffffffffffffffffffffffffffffffffffffffffffffffffffffffffffff03821115613c5f57613c5e613e68565b5b828201905092915050565b6000613c7582613d46565b9150613c8083613d46565b9250817fffffffffffffffffffffffffffffffffffffffffffffffffffffffffffffffff0483118215151615613cb957613cb8613e68565b5b828202905092915050565b6000613ccf82613d26565b9050919050565b60008115159050919050565b6000819050919050565b60007fffffffff0000000000000000000000000000000000000000000000000000000082169050919050565b600061ffff82169050919050565b600073ffffffffffffffffffffffffffffffffffffffff82169050919050565b6000819050919050565b82818337600083830152505050565b60005b83811015613d7d578082015181840152602081019050613d62565b83811115613d8c576000848401525b50505050565b6000613d9d82613d46565b91506000821415613db157613db0613e68565b5b600182039050919050565b60006002820490506001821680613dd457607f821691505b60208210811415613de857613de7613e97565b5b50919050565b613df782613ef5565b810181811067ffffffffffffffff82111715613e1657613e15613ec6565b5b80604052505050565b6000613e2a82613d46565b91507fffffffffffffffffffffffffffffffffffffffffffffffffffffffffffffffff821415613e5d57613e5c613e68565b5b600182019050919050565b7f4e487b7100000000000000000000000000000000000000000000000000000000600052601160045260246000fd5b7f4e487b7100000000000000000000000000000000000000000000000000000000600052602260045260246000fd5b7f4e487b7100000000000000000000000000000000000000000000000000000000600052604160045260246000fd5b6000601f19601f8301169050919050565b7f537472696e67733a20686578206c656e67746820696e73756666696369656e74600082015250565b7f4552433732313a2063616c6c6572206973206e6f7420746f6b656e206f776e6560008201527f72206f7220617070726f76656400000000000000000000000000000000000000602082015250565b7f4552433732313a207472616e7366657220746f206e6f6e20455243373231526560008201527f63656976657220696d706c656d656e7465720000000000000000000000000000602082015250565b7f4552433732313a207472616e736665722066726f6d20696e636f72726563742060008201527f6f776e6572000000000000000000000000000000000000000000000000000000602082015250565b7f4552433732313a20746f6b656e20616c7265616479206d696e74656400000000600082015250565b7f4552433732313a207472616e7366657220746f20746865207a65726f2061646460008201527f7265737300000000000000000000000000000000000000000000000000000000602082015250565b7f4552433732313a20617070726f766520746f2063616c6c657200000000000000600082015250565b7f546f6b656e20646f6573206e6f74206578697374000000000000000000000000600082015250565b7f4552433732313a2061646472657373207a65726f206973206e6f74206120766160008201527f6c6964206f776e65720000000000000000000000000000000000000000000000602082015250565b7f4d69736d61746368656420696e70757473000000000000000000000000000000600082015250565b7f4552433732313a206d696e7420746f20746865207a65726f2061646472657373600082015250565b7f4552433732313a20696e76616c696420746f6b656e2049440000000000000000600082015250565b7f4552433732313a20617070726f76616c20746f2063757272656e74206f776e6560008201527f7200000000000000000000000000000000000000000000000000000000000000602082015250565b7f4552433732313a20617070726f76652063616c6c6572206973206e6f7420746f60008201527f6b656e206f776e6572206f7220617070726f76656420666f7220616c6c000000602082015250565b7f416363657373436f6e74726f6c3a206163636f756e7420000000000000000000600082015250565b7f536861726573206d7573742073756d20746f2031303000000000000000000000600082015250565b7f206973206d697373696e6720726f6c6520000000000000000000000000000000600082015250565b7f416363657373436f6e74726f6c3a2063616e206f6e6c792072656e6f756e636560008201527f20726f6c657320666f722073656c660000000000000000000000000000000000602082015250565b61432181613cc4565b811461432c57600080fd5b50565b61433881613cd6565b811461434357600080fd5b50565b61434f81613ce2565b811461435a57600080fd5b50565b61436681613cec565b811461437157600080fd5b50565b61437d81613d18565b811461438857600080fd5b50565b61439481613d46565b811461439f57600080fd5b5056fea26469706673582212209e8f7df99f13367189cc1c7eebb912a13300308fc4c6b79a5c5c776ebfafe33d64736f6c63430008010033",
  "linkReferences": {},
  "deployedLinkReferences": {}
}