{
  "_format": "hh-sol-artifact-1",
  "contractName": "SecurityLayer",
  "sourceName": "contracts/SecurityLayer.sol",
  "abi": [
    {
      "inputs": [
        {
          "internalType": "bytes",
          "name": "data",
          "type": "bytes"
        }
      ],
      "name": "validateData",
      "outputs": [
        {
          "internalType": "bool",
          "name": "",
          "type": "bool"
        }
      ],
      "stateMutability": "pure",
      "type": "function"
    },
    {
      "inputs": [
        {
          "internalType": "bytes32",
          "name": "hash",
          "type": "bytes32"
        },
        {
          "internalType": "bytes",
          "name": "signature",
          "type": "bytes"
        },
        {
          "internalType": "address",
          "name": "user",
          "type": "address"
        }
      ],
      "name": "validateSignature",
      "outputs": [
        {
          "internalType": "bool",
          "name": "",
          "type": "bool"
        }
      ],
      "stateMutability": "pure",
      "type": "function"
    }
  ],
  "bytecode": "0x608060405234801561001057600080fd5b506109fd806100206000396000f3fe608060405234801561001057600080fd5b50600436106100365760003560e01c80637810e19f1461003b578063a6ffa36c1461006b575b600080fd5b610055600480360381019061005091906105be565b61009b565b60405161006291906106fc565b60405180910390f35b61008560048036038101906100809190610625565b6100ef565b60405161009291906106fc565b60405180910390f35b60008173ffffffffffffffffffffffffffffffffffffffff166100cf846100c1876100fc565b61013290919063ffffffff16565b73ffffffffffffffffffffffffffffffffffffffff161490509392505050565b6000808251119050919050565b60007f19457468657265756d205369676e6564204d6573736167653a0a33320000000060005281601c52603c6000209050919050565b60008060006101418585610159565b9150915061014e816101ab565b819250505092915050565b60008060418351141561019b5760008060006020860151925060408601519150606086015160001a905061018f87828585610449565b945094505050506101a4565b60006002915091505b9250929050565b600060048111156101e5577f4e487b7100000000000000000000000000000000000000000000000000000000600052602160045260246000fd5b81600481111561021e577f4e487b7100000000000000000000000000000000000000000000000000000000600052602160045260246000fd5b141561022957610446565b60016004811115610263577f4e487b7100000000000000000000000000000000000000000000000000000000600052602160045260246000fd5b81600481111561029c577f4e487b7100000000000000000000000000000000000000000000000000000000600052602160045260246000fd5b14156102dd576040517f08c379a00000000000000000000000000000000000000000000000000000000081526004016102d49061075c565b60405180910390fd5b60026004811115610317577f4e487b7100000000000000000000000000000000000000000000000000000000600052602160045260246000fd5b816004811115610350577f4e487b7100000000000000000000000000000000000000000000000000000000600052602160045260246000fd5b1415610391576040517f08c379a00000000000000000000000000000000000000000000000000000000081526004016103889061077c565b60405180910390fd5b600360048111156103cb577f4e487b7100000000000000000000000000000000000000000000000000000000600052602160045260246000fd5b816004811115610404577f4e487b7100000000000000000000000000000000000000000000000000000000600052602160045260246000fd5b1415610445576040517f08c379a000000000000000000000000000000000000000000000000000000000815260040161043c9061079c565b60405180910390fd5b5b50565b6000807f7fffffffffffffffffffffffffffffff5d576e7357a4501ddfe92f46681b20a08360001c1115610484576000600391509150610523565b6000600187878787604051600081526020016040526040516104a99493929190610717565b6020604051602081039080840390855afa1580156104cb573d6000803e3d6000fd5b505050602060405103519050600073ffffffffffffffffffffffffffffffffffffffff168173ffffffffffffffffffffffffffffffffffffffff16141561051a57600060019250925050610523565b80600092509250505b94509492505050565b600061053f61053a846107e1565b6107bc565b90508281526020810184848401111561055757600080fd5b610562848285610878565b509392505050565b60008135905061057981610999565b92915050565b60008135905061058e816109b0565b92915050565b600082601f8301126105a557600080fd5b81356105b584826020860161052c565b91505092915050565b6000806000606084860312156105d357600080fd5b60006105e18682870161057f565b935050602084013567ffffffffffffffff8111156105fe57600080fd5b61060a86828701610594565b925050604061061b8682870161056a565b9150509250925092565b60006020828403121561063757600080fd5b600082013567ffffffffffffffff81111561065157600080fd5b61065d84828501610594565b91505092915050565b61066f81610835565b82525050565b61067e81610841565b82525050565b6000610691601883610812565b915061069c826108f8565b602082019050919050565b60006106b4601f83610812565b91506106bf82610921565b602082019050919050565b60006106d7602283610812565b91506106e28261094a565b604082019050919050565b6106f68161086b565b82525050565b60006020820190506107116000830184610666565b92915050565b600060808201905061072c6000830187610675565b61073960208301866106ed565b6107466040830185610675565b6107536060830184610675565b95945050505050565b6000602082019050818103600083015261077581610684565b9050919050565b60006020820190508181036000830152610795816106a7565b9050919050565b600060208201905081810360008301526107b5816106ca565b9050919050565b60006107c66107d7565b90506107d28282610887565b919050565b6000604051905090565b600067ffffffffffffffff8211156107fc576107fb6108b8565b5b610805826108e7565b9050602081019050919050565b600082825260208201905092915050565b600061082e8261084b565b9050919050565b60008115159050919050565b6000819050919050565b600073ffffffffffffffffffffffffffffffffffffffff82169050919050565b600060ff82169050919050565b82818337600083830152505050565b610890826108e7565b810181811067ffffffffffffffff821117156108af576108ae6108b8565b5b80604052505050565b7f4e487b7100000000000000000000000000000000000000000000000000000000600052604160045260246000fd5b6000601f19601f8301169050919050565b7f45434453413a20696e76616c6964207369676e61747572650000000000000000600082015250565b7f45434453413a20696e76616c6964207369676e6174757265206c656e67746800600082015250565b7f45434453413a20696e76616c6964207369676e6174757265202773272076616c60008201527f7565000000000000000000000000000000000000000000000000000000000000602082015250565b6109a281610823565b81146109ad57600080fd5b50565b6109b981610841565b81146109c457600080fd5b5056fea26469706673582212204883aa776b1088e4519e05453227c8d4f0bbc593150ad11d9b5b48756ec8f34064736f6c63430008010033",
  "linkReferences": {},
  "deployedLinkReferences": {}
}