{
  "_format": "hh-sol-artifact-1",
  "contractName": "FeeCollector",
  "sourceName": "contracts/FeeCollector.sol",
  "abi": [
    {
      "inputs": [],
      "stateMutability": "nonpayable",
      "type": "constructor"
    },
    {
      "anonymous": false,
      "inputs": [
        {
          "indexed": false,
          "internalType": "uint256",
          "name": "tokenId",
          "type": "uint256"
        },
        {
          "indexed": false,
          "internalType": "uint256",
          "name": "amount",
          "type": "uint256"
        }
      ],
      "name": "Fees_Collected",
      "type": "event"
    },
    {
      "anonymous": false,
      "inputs": [
        {
          "indexed": false,
          "internalType": "address",
          "name": "sponsor",
          "type": "address"
        }
      ],
      "name": "Sponsor_Added",
      "type": "event"
    },
    {
      "anonymous": false,
      "inputs": [
        {
          "indexed": false,
          "internalType": "address",
          "name": "sponsor",
          "type": "address"
        }
      ],
      "name": "Sponsor_Removed",
      "type": "event"
    },
    {
      "inputs": [
        {
          "internalType": "address",
          "name": "sponsor",
          "type": "address"
        }
      ],
      "name": "addGasSponsor",
      "outputs": [],
      "stateMutability": "nonpayable",
      "type": "function"
    },
    {
      "inputs": [
        {
          "internalType": "uint256",
          "name": "tokenId",
          "type": "uint256"
        },
        {
          "internalType": "uint256",
          "name": "amount",
          "type": "uint256"
        }
      ],
      "name": "collectFees",
      "outputs": [],
      "stateMutability": "nonpayable",
      "type": "function"
    },
    {
      "inputs": [
        {
          "internalType": "uint256",
          "name": "",
          "type": "uint256"
        }
      ],
      "name": "feesCollected",
      "outputs": [
        {
          "internalType": "uint256",
          "name": "",
          "type": "uint256"
        }
      ],
      "stateMutability": "view",
      "type": "function"
    },
    {
      "inputs": [
        {
          "internalType": "address",
          "name": "",
          "type": "address"
        }
      ],
      "name": "gasSponsors",
      "outputs": [
        {
          "internalType": "bool",
          "name": "",
          "type": "bool"
        }
      ],
      "stateMutability": "view",
      "type": "function"
    },
    {
      "inputs": [],
      "name": "owner",
      "outputs": [
        {
          "internalType": "address",
          "name": "",
          "type": "address"
        }
      ],
      "stateMutability": "view",
      "type": "function"
    },
    {
      "inputs": [
        {
          "internalType": "address",
          "name": "sponsor",
          "type": "address"
        }
      ],
      "name": "removeGasSponsor",
      "outputs": [],
      "stateMutability": "nonpayable",
      "type": "function"
    },
    {
      "inputs": [],
      "name": "securityLayer",
      "outputs": [
        {
          "internalType": "contract SecurityLayer",
          "name": "",
          "type": "address"
        }
      ],
      "stateMutability": "view",
      "type": "function"
    }
  ],
  "bytecode": "0x608060405234801561001057600080fd5b50336000806101000a81548173ffffffffffffffffffffffffffffffffffffffff021916908373ffffffffffffffffffffffffffffffffffffffff16021790555060405161005d906100bf565b604051809103906000f080158015610079573d6000803e3d6000fd5b50600360006101000a81548173ffffffffffffffffffffffffffffffffffffffff021916908373ffffffffffffffffffffffffffffffffffffffff1602179055506100cc565b610a1d80610c3383390190565b610b58806100db6000396000f3fe608060405234801561001057600080fd5b506004361061007d5760003560e01c80638da5cb5b1161005b5780638da5cb5b146100ea578063d12c38e114610108578063d906974014610124578063ed674250146101425761007d565b8063175bcf4a146100825780636724707e146100b25780636cae7bf7146100ce575b600080fd5b61009c600480360381019061009791906106c5565b610172565b6040516100a991906108db565b60405180910390f35b6100cc60048036038101906100c79190610673565b61018a565b005b6100e860048036038101906100e391906106ee565b6102aa565b005b6100f26104aa565b6040516100ff9190610828565b60405180910390f35b610122600480360381019061011d9190610673565b6104ce565b005b61012c6105ee565b6040516101399190610880565b60405180910390f35b61015c60048036038101906101579190610673565b610614565b6040516101699190610843565b60405180910390f35b60016020528060005260406000206000915090505481565b60008054906101000a900473ffffffffffffffffffffffffffffffffffffffff1673ffffffffffffffffffffffffffffffffffffffff163373ffffffffffffffffffffffffffffffffffffffff1614610218576040517f08c379a000000000000000000000000000000000000000000000000000000000815260040161020f906108bb565b60405180910390fd5b6000600260008373ffffffffffffffffffffffffffffffffffffffff1673ffffffffffffffffffffffffffffffffffffffff16815260200190815260200160002060006101000a81548160ff0219169083151502179055507f6cb9e2c5322510468276dc415b163fbdb928a9fe1541f093d034e894415dd0198160405161029f9190610828565b60405180910390a150565b60008054906101000a900473ffffffffffffffffffffffffffffffffffffffff1673ffffffffffffffffffffffffffffffffffffffff163373ffffffffffffffffffffffffffffffffffffffff1614610338576040517f08c379a000000000000000000000000000000000000000000000000000000000815260040161032f906108bb565b60405180910390fd5b600360009054906101000a900473ffffffffffffffffffffffffffffffffffffffff1673ffffffffffffffffffffffffffffffffffffffff1663a6ffa36c83836040516020016103899291906107fc565b6040516020818303038152906040526040518263ffffffff1660e01b81526004016103b4919061085e565b60206040518083038186803b1580156103cc57600080fd5b505afa1580156103e0573d6000803e3d6000fd5b505050506040513d601f19601f82011682018060405250810190610404919061069c565b610443576040517f08c379a000000000000000000000000000000000000000000000000000000000815260040161043a9061089b565b60405180910390fd5b80600160008481526020019081526020016000206000828254610466919061094c565b925050819055507f92ca757af8447a0a2b5c1aa8617a36f01f35702e2f1886ddb69a4937c03b2cd9828260405161049e9291906108f6565b60405180910390a15050565b60008054906101000a900473ffffffffffffffffffffffffffffffffffffffff1681565b60008054906101000a900473ffffffffffffffffffffffffffffffffffffffff1673ffffffffffffffffffffffffffffffffffffffff163373ffffffffffffffffffffffffffffffffffffffff161461055c576040517f08c379a0000000000000000000000000000000000000000000000000000000008152600401610553906108bb565b60405180910390fd5b6001600260008373ffffffffffffffffffffffffffffffffffffffff1673ffffffffffffffffffffffffffffffffffffffff16815260200190815260200160002060006101000a81548160ff0219169083151502179055507f14e1727f0a96f93a117fcfda63c62ba1463a85d88dea463cfea787643d3c2b29816040516105e39190610828565b60405180910390a150565b600360009054906101000a900473ffffffffffffffffffffffffffffffffffffffff1681565b60026020528060005260406000206000915054906101000a900460ff1681565b60008135905061064381610add565b92915050565b60008151905061065881610af4565b92915050565b60008135905061066d81610b0b565b92915050565b60006020828403121561068557600080fd5b600061069384828501610634565b91505092915050565b6000602082840312156106ae57600080fd5b60006106bc84828501610649565b91505092915050565b6000602082840312156106d757600080fd5b60006106e58482850161065e565b91505092915050565b6000806040838503121561070157600080fd5b600061070f8582860161065e565b92505060206107208582860161065e565b9150509250929050565b610733816109a2565b82525050565b610742816109b4565b82525050565b60006107538261091f565b61075d818561092a565b935061076d818560208601610a0e565b61077681610a7a565b840191505092915050565b61078a816109ea565b82525050565b600061079d600c8361093b565b91506107a882610a8b565b602082019050919050565b60006107c0600d8361093b565b91506107cb82610ab4565b602082019050919050565b6107df816109e0565b82525050565b6107f66107f1826109e0565b610a41565b82525050565b600061080882856107e5565b60208201915061081882846107e5565b6020820191508190509392505050565b600060208201905061083d600083018461072a565b92915050565b60006020820190506108586000830184610739565b92915050565b600060208201905081810360008301526108788184610748565b905092915050565b60006020820190506108956000830184610781565b92915050565b600060208201905081810360008301526108b481610790565b9050919050565b600060208201905081810360008301526108d4816107b3565b9050919050565b60006020820190506108f060008301846107d6565b92915050565b600060408201905061090b60008301856107d6565b61091860208301846107d6565b9392505050565b600081519050919050565b600082825260208201905092915050565b600082825260208201905092915050565b6000610957826109e0565b9150610962836109e0565b9250827fffffffffffffffffffffffffffffffffffffffffffffffffffffffffffffffff0382111561099757610996610a4b565b5b828201905092915050565b60006109ad826109c0565b9050919050565b60008115159050919050565b600073ffffffffffffffffffffffffffffffffffffffff82169050919050565b6000819050919050565b60006109f5826109fc565b9050919050565b6000610a07826109c0565b9050919050565b60005b83811015610a2c578082015181840152602081019050610a11565b83811115610a3b576000848401525b50505050565b6000819050919050565b7f4e487b7100000000000000000000000000000000000000000000000000000000600052601160045260246000fd5b6000601f19601f8301169050919050565b7f496e76616c696420646174610000000000000000000000000000000000000000600082015250565b7f4e6f7420746865206f776e657200000000000000000000000000000000000000600082015250565b610ae6816109a2565b8114610af157600080fd5b50565b610afd816109b4565b8114610b0857600080fd5b50565b610b14816109e0565b8114610b1f57600080fd5b5056fea26469706673582212202b99a1b7145fe1bc1ee71ed8d520c3147e2a7f1d12e40905b8777acc1559986f64736f6c63430008010033608060405234801561001057600080fd5b506109fd806100206000396000f3fe608060405234801561001057600080fd5b50600436106100365760003560e01c80637810e19f1461003b578063a6ffa36c1461006b575b600080fd5b610055600480360381019061005091906105be565b61009b565b60405161006291906106fc565b60405180910390f35b61008560048036038101906100809190610625565b6100ef565b60405161009291906106fc565b60405180910390f35b60008173ffffffffffffffffffffffffffffffffffffffff166100cf846100c1876100fc565b61013290919063ffffffff16565b73ffffffffffffffffffffffffffffffffffffffff161490509392505050565b6000808251119050919050565b60007f19457468657265756d205369676e6564204d6573736167653a0a33320000000060005281601c52603c6000209050919050565b60008060006101418585610159565b9150915061014e816101ab565b819250505092915050565b60008060418351141561019b5760008060006020860151925060408601519150606086015160001a905061018f87828585610449565b945094505050506101a4565b60006002915091505b9250929050565b600060048111156101e5577f4e487b7100000000000000000000000000000000000000000000000000000000600052602160045260246000fd5b81600481111561021e577f4e487b7100000000000000000000000000000000000000000000000000000000600052602160045260246000fd5b141561022957610446565b60016004811115610263577f4e487b7100000000000000000000000000000000000000000000000000000000600052602160045260246000fd5b81600481111561029c577f4e487b7100000000000000000000000000000000000000000000000000000000600052602160045260246000fd5b14156102dd576040517f08c379a00000000000000000000000000000000000000000000000000000000081526004016102d49061075c565b60405180910390fd5b60026004811115610317577f4e487b7100000000000000000000000000000000000000000000000000000000600052602160045260246000fd5b816004811115610350577f4e487b7100000000000000000000000000000000000000000000000000000000600052602160045260246000fd5b1415610391576040517f08c379a00000000000000000000000000000000000000000000000000000000081526004016103889061077c565b60405180910390fd5b600360048111156103cb577f4e487b7100000000000000000000000000000000000000000000000000000000600052602160045260246000fd5b816004811115610404577f4e487b7100000000000000000000000000000000000000000000000000000000600052602160045260246000fd5b1415610445576040517f08c379a000000000000000000000000000000000000000000000000000000000815260040161043c9061079c565b60405180910390fd5b5b50565b6000807f7fffffffffffffffffffffffffffffff5d576e7357a4501ddfe92f46681b20a08360001c1115610484576000600391509150610523565b6000600187878787604051600081526020016040526040516104a99493929190610717565b6020604051602081039080840390855afa1580156104cb573d6000803e3d6000fd5b505050602060405103519050600073ffffffffffffffffffffffffffffffffffffffff168173ffffffffffffffffffffffffffffffffffffffff16141561051a57600060019250925050610523565b80600092509250505b94509492505050565b600061053f61053a846107e1565b6107bc565b90508281526020810184848401111561055757600080fd5b610562848285610878565b509392505050565b60008135905061057981610999565b92915050565b60008135905061058e816109b0565b92915050565b600082601f8301126105a557600080fd5b81356105b584826020860161052c565b91505092915050565b6000806000606084860312156105d357600080fd5b60006105e18682870161057f565b935050602084013567ffffffffffffffff8111156105fe57600080fd5b61060a86828701610594565b925050604061061b8682870161056a565b9150509250925092565b60006020828403121561063757600080fd5b600082013567ffffffffffffffff81111561065157600080fd5b61065d84828501610594565b91505092915050565b61066f81610835565b82525050565b61067e81610841565b82525050565b6000610691601883610812565b915061069c826108f8565b602082019050919050565b60006106b4601f83610812565b91506106bf82610921565b602082019050919050565b60006106d7602283610812565b91506106e28261094a565b604082019050919050565b6106f68161086b565b82525050565b60006020820190506107116000830184610666565b92915050565b600060808201905061072c6000830187610675565b61073960208301866106ed565b6107466040830185610675565b6107536060830184610675565b95945050505050565b6000602082019050818103600083015261077581610684565b9050919050565b60006020820190508181036000830152610795816106a7565b9050919050565b600060208201905081810360008301526107b5816106ca565b9050919050565b60006107c66107d7565b90506107d28282610887565b919050565b6000604051905090565b600067ffffffffffffffff8211156107fc576107fb6108b8565b5b610805826108e7565b9050602081019050919050565b600082825260208201905092915050565b600061082e8261084b565b9050919050565b60008115159050919050565b6000819050919050565b600073ffffffffffffffffffffffffffffffffffffffff82169050919050565b600060ff82169050919050565b82818337600083830152505050565b610890826108e7565b810181811067ffffffffffffffff821117156108af576108ae6108b8565b5b80604052505050565b7f4e487b7100000000000000000000000000000000000000000000000000000000600052604160045260246000fd5b6000601f19601f8301169050919050565b7f45434453413a20696e76616c6964207369676e61747572650000000000000000600082015250565b7f45434453413a20696e76616c6964207369676e6174757265206c656e67746800600082015250565b7f45434453413a20696e76616c6964207369676e6174757265202773272076616c60008201527f7565000000000000000000000000000000000000000000000000000000000000602082015250565b6109a281610823565b81146109ad57600080fd5b50565b6109b981610841565b81146109c457600080fd5b5056fea26469706673582212204883aa776b1088e4519e05453227c8d4f0bbc593150ad11d9b5b48756ec8f34064736f6c63430008010033",
  "linkReferences": {},
  "deployedLinkReferences": {}
}